{"abi":[{"type":"constructor","inputs":[{"name":"wchi","type":"address","internalType":"contract IERC20"},{"name":"initialPolicy","type":"address","internalType":"contract IXayaPolicy"}],"stateMutability":"nonpayable"},{"type":"function","name":"approve","inputs":[{"name":"to","type":"address","internalType":"address"},{"name":"tokenId","type":"uint256","internalType":"uint256"}],"outputs":[],"stateMutability":"nonpayable"},{"type":"function","name":"balanceOf","inputs":[{"name":"owner","type":"address","internalType":"address"}],"outputs":[{"name":"","type":"uint256","internalType":"uint256"}],"stateMutability":"view"},{"type":"function","name":"contractURI","inputs":[],"outputs":[{"name":"","type":"string","internalType":"string"}],"stateMutability":"view"},{"type":"function","name":"enactPolicyChange","inputs":[],"outputs":[],"stateMutability":"nonpayable"},{"type":"function","name":"exists","inputs":[{"name":"ns","type":"string","internalType":"string"},{"name":"name","type":"string","internalType":"string"}],"outputs":[{"name":"","type":"bool","internalType":"bool"}],"stateMutability":"view"},{"type":"function","name":"exists","inputs":[{"name":"tokenId","type":"uint256","internalType":"uint256"}],"outputs":[{"name":"","type":"bool","internalType":"bool"}],"stateMutability":"view"},{"type":"function","name":"getApproved","inputs":[{"name":"tokenId","type":"uint256","internalType":"uint256"}],"outputs":[{"name":"","type":"address","internalType":"address"}],"stateMutability":"view"},{"type":"function","name":"isApprovedForAll","inputs":[{"name":"owner","type":"address","internalType":"address"},{"name":"operator","type":"address","internalType":"address"}],"outputs":[{"name":"","type":"bool","internalType":"bool"}],"stateMutability":"view"},{"type":"function","name":"move","inputs":[{"name":"ns","type":"string","internalType":"string"},{"name":"name","type":"string","internalType":"string"},{"name":"mv","type":"string","internalType":"string"},{"name":"nonce","type":"uint256","internalType":"uint256"},{"name":"amount","type":"uint256","internalType":"uint256"},{"name":"receiver","type":"address","internalType":"address"}],"outputs":[{"name":"","type":"uint256","internalType":"uint256"}],"stateMutability":"nonpayable"},{"type":"function","name":"name","inputs":[],"outputs":[{"name":"","type":"string","internalType":"string"}],"stateMutability":"view"},{"type":"function","name":"nextNonce","inputs":[{"name":"","type":"uint256","internalType":"uint256"}],"outputs":[{"name":"","type":"uint256","internalType":"uint256"}],"stateMutability":"view"},{"type":"function","name":"nextPermitNonce","inputs":[{"name":"","type":"address","internalType":"address"}],"outputs":[{"name":"","type":"uint256","internalType":"uint256"}],"stateMutability":"view"},{"type":"function","name":"nextPolicy","inputs":[],"outputs":[{"name":"","type":"address","internalType":"contract IXayaPolicy"}],"stateMutability":"view"},{"type":"function","name":"nextPolicyAfter","inputs":[],"outputs":[{"name":"","type":"uint256","internalType":"uint256"}],"stateMutability":"view"},{"type":"function","name":"owner","inputs":[],"outputs":[{"name":"","type":"address","internalType":"address"}],"stateMutability":"view"},{"type":"function","name":"ownerOf","inputs":[{"name":"tokenId","type":"uint256","internalType":"uint256"}],"outputs":[{"name":"","type":"address","internalType":"address"}],"stateMutability":"view"},{"type":"function","name":"permitOperator","inputs":[{"name":"owner","type":"address","internalType":"address"},{"name":"operator","type":"address","internalType":"address"},{"name":"signature","type":"bytes","internalType":"bytes"}],"outputs":[],"stateMutability":"nonpayable"},{"type":"function","name":"permitOperatorMessage","inputs":[{"name":"owner","type":"address","internalType":"address"},{"name":"operator","type":"address","internalType":"address"}],"outputs":[{"name":"","type":"bytes","internalType":"bytes"}],"stateMutability":"view"},{"type":"function","name":"policy","inputs":[],"outputs":[{"name":"","type":"address","internalType":"contract IXayaPolicy"}],"stateMutability":"view"},{"type":"function","name":"policyTimelock","inputs":[],"outputs":[{"name":"","type":"uint256","internalType":"uint256"}],"stateMutability":"view"},{"type":"function","name":"register","inputs":[{"name":"ns","type":"string","internalType":"string"},{"name":"name","type":"string","internalType":"string"}],"outputs":[{"name":"","type":"uint256","internalType":"uint256"}],"stateMutability":"nonpayable"},{"type":"function","name":"renounceOwnership","inputs":[],"outputs":[],"stateMutability":"nonpayable"},{"type":"function","name":"safeTransferFrom","inputs":[{"name":"from","type":"address","internalType":"address"},{"name":"to","type":"address","internalType":"address"},{"name":"tokenId","type":"uint256","internalType":"uint256"}],"outputs":[],"stateMutability":"nonpayable"},{"type":"function","name":"safeTransferFrom","inputs":[{"name":"from","type":"address","internalType":"address"},{"name":"to","type":"address","internalType":"address"},{"name":"tokenId","type":"uint256","internalType":"uint256"},{"name":"_data","type":"bytes","internalType":"bytes"}],"outputs":[],"stateMutability":"nonpayable"},{"type":"function","name":"schedulePolicyChange","inputs":[{"name":"newPolicy","type":"address","internalType":"contract IXayaPolicy"}],"outputs":[],"stateMutability":"nonpayable"},{"type":"function","name":"setApprovalForAll","inputs":[{"name":"operator","type":"address","internalType":"address"},{"name":"approved","type":"bool","internalType":"bool"}],"outputs":[],"stateMutability":"nonpayable"},{"type":"function","name":"supportsInterface","inputs":[{"name":"interfaceId","type":"bytes4","internalType":"bytes4"}],"outputs":[{"name":"","type":"bool","internalType":"bool"}],"stateMutability":"view"},{"type":"function","name":"symbol","inputs":[],"outputs":[{"name":"","type":"string","internalType":"string"}],"stateMutability":"view"},{"type":"function","name":"tokenByIndex","inputs":[{"name":"index","type":"uint256","internalType":"uint256"}],"outputs":[{"name":"","type":"uint256","internalType":"uint256"}],"stateMutability":"view"},{"type":"function","name":"tokenIdForName","inputs":[{"name":"ns","type":"string","internalType":"string"},{"name":"name","type":"string","internalType":"string"}],"outputs":[{"name":"","type":"uint256","internalType":"uint256"}],"stateMutability":"pure"},{"type":"function","name":"tokenIdToName","inputs":[{"name":"tokenId","type":"uint256","internalType":"uint256"}],"outputs":[{"name":"","type":"string","internalType":"string"},{"name":"","type":"string","internalType":"string"}],"stateMutability":"view"},{"type":"function","name":"tokenOfOwnerByIndex","inputs":[{"name":"owner","type":"address","internalType":"address"},{"name":"index","type":"uint256","internalType":"uint256"}],"outputs":[{"name":"","type":"uint256","internalType":"uint256"}],"stateMutability":"view"},{"type":"function","name":"tokenURI","inputs":[{"name":"tokenId","type":"uint256","internalType":"uint256"}],"outputs":[{"name":"","type":"string","internalType":"string"}],"stateMutability":"view"},{"type":"function","name":"totalSupply","inputs":[],"outputs":[{"name":"","type":"uint256","internalType":"uint256"}],"stateMutability":"view"},{"type":"function","name":"transferFrom","inputs":[{"name":"from","type":"address","internalType":"address"},{"name":"to","type":"address","internalType":"address"},{"name":"tokenId","type":"uint256","internalType":"uint256"}],"outputs":[],"stateMutability":"nonpayable"},{"type":"function","name":"transferOwnership","inputs":[{"name":"newOwner","type":"address","internalType":"address"}],"outputs":[],"stateMutability":"nonpayable"},{"type":"function","name":"wchiToken","inputs":[],"outputs":[{"name":"","type":"address","internalType":"contract IERC20"}],"stateMutability":"view"},{"type":"event","name":"Approval","inputs":[{"name":"owner","type":"address","indexed":true,"internalType":"address"},{"name":"approved","type":"address","indexed":true,"internalType":"address"},{"name":"tokenId","type":"uint256","indexed":true,"internalType":"uint256"}],"anonymous":false},{"type":"event","name":"ApprovalForAll","inputs":[{"name":"owner","type":"address","indexed":true,"internalType":"address"},{"name":"operator","type":"address","indexed":true,"internalType":"address"},{"name":"approved","type":"bool","indexed":false,"internalType":"bool"}],"anonymous":false},{"type":"event","name":"Move","inputs":[{"name":"ns","type":"string","indexed":false,"internalType":"string"},{"name":"name","type":"string","indexed":false,"internalType":"string"},{"name":"mv","type":"string","indexed":false,"internalType":"string"},{"name":"tokenId","type":"uint256","indexed":true,"internalType":"uint256"},{"name":"nonce","type":"uint256","indexed":false,"internalType":"uint256"},{"name":"mover","type":"address","indexed":false,"internalType":"address"},{"name":"amount","type":"uint256","indexed":false,"internalType":"uint256"},{"name":"receiver","type":"address","indexed":false,"internalType":"address"}],"anonymous":false},{"type":"event","name":"OwnershipTransferred","inputs":[{"name":"previousOwner","type":"address","indexed":true,"internalType":"address"},{"name":"newOwner","type":"address","indexed":true,"internalType":"address"}],"anonymous":false},{"type":"event","name":"PolicyChangeScheduled","inputs":[{"name":"newPolicy","type":"address","indexed":false,"internalType":"contract IXayaPolicy"},{"name":"validAfter","type":"uint256","indexed":false,"internalType":"uint256"}],"anonymous":false},{"type":"event","name":"PolicyChanged","inputs":[{"name":"oldPolicy","type":"address","indexed":false,"internalType":"contract IXayaPolicy"},{"name":"newPolicy","type":"address","indexed":false,"internalType":"contract IXayaPolicy"}],"anonymous":false},{"type":"event","name":"Registration","inputs":[{"name":"ns","type":"string","indexed":false,"internalType":"string"},{"name":"name","type":"string","indexed":false,"internalType":"string"},{"name":"tokenId","type":"uint256","indexed":true,"internalType":"uint256"},{"name":"owner","type":"address","indexed":false,"internalType":"address"}],"anonymous":false},{"type":"event","name":"Transfer","inputs":[{"name":"from","type":"address","indexed":true,"internalType":"address"},{"name":"to","type":"address","indexed":true,"internalType":"address"},{"name":"tokenId","type":"uint256","indexed":true,"internalType":"uint256"}],"anonymous":false}],"bytecode":{"object":"0x60a060405234801561001057600080fd5b5060405161490138038061490183398101604081905261002f91610177565b6040518060400160405280600981526020016858617961204e616d6560b81b815250604051806040016040528060048152602001635841594160e01b815250816000908161007d9190610250565b50600161008a8282610250565b5050506100a361009e61010960201b60201c565b61010d565b6001600160a01b03828116608052600b80546001600160a01b0319169183169182179055604080516000815260208101929092527f9fb4639eb3115274c0dca1893a5ffb376a717d9268b31846835ac71bcce5470b910160405180910390a1505061030e565b3390565b600a80546001600160a01b038381166001600160a01b0319831681179093556040519116919082907f8be0079c531659141344cd1fd0a4f28419497f9722a3daafe3b4186f6b6457e090600090a35050565b6001600160a01b038116811461017457600080fd5b50565b6000806040838503121561018a57600080fd5b82516101958161015f565b60208401519092506101a68161015f565b809150509250929050565b634e487b7160e01b600052604160045260246000fd5b600181811c908216806101db57607f821691505b6020821081036101fb57634e487b7160e01b600052602260045260246000fd5b50919050565b601f82111561024b57806000526020600020601f840160051c810160208510156102285750805b601f840160051c820191505b818110156102485760008155600101610234565b50505b505050565b81516001600160401b03811115610269576102696101b1565b61027d8161027784546101c7565b84610201565b6020601f8211600181146102b157600083156102995750848201515b600019600385901b1c1916600184901b178455610248565b600084815260208120601f198516915b828110156102e157878501518255602094850194600190920191016102c1565b50848210156102ff5786840151600019600387901b60f8161c191681555b50505050600190811b01905550565b6080516145c361033e600039600081816105ae01528181610d0e0152818161161301526118e401526145c36000f3fe608060405234801561001057600080fd5b50600436106102775760003560e01c80636352211e11610160578063b88d4fde116100d8578063e8a3d4851161008c578063f2fde38b11610071578063f2fde38b14610583578063f7935b1e14610596578063f94e3cac146105a957600080fd5b8063e8a3d48514610532578063e985e9c51461053a57600080fd5b8063d89d75d8116100bd578063d89d75d8146104de578063da2bfdb1146104f1578063e0a6f0281461051257600080fd5b8063b88d4fde146104b8578063c87b56dd146104cb57600080fd5b80638da5cb5b1161012f57806390305e281161011457806390305e281461049357806395d89b411461049d578063a22cb465146104a557600080fd5b80638da5cb5b14610462578063901132821461048057600080fd5b80636352211e1461041457806367cbe2d51461042757806370a0823114610447578063715018a61461045a57600080fd5b806332f43324116101f35780634f558e79116101c257806356aabfb9116101a757806356aabfb9146103d85780635bbebd19146103eb5780635c0c1582146103f457600080fd5b80634f558e79146103b25780634f6ccce7146103c557600080fd5b806332f43324146103715780633ffbd47f1461037957806342842e0e1461038c5780634f1ed09e1461039f57600080fd5b8063095ea7b31161024a57806323b872dd1161022f57806323b872dd146103385780632656554c1461034b5780632f745c591461035e57600080fd5b8063095ea7b31461031157806318160ddd1461032657600080fd5b806301ffc9a71461027c5780630505c8c9146102a457806306fdde03146102e9578063081812fc146102fe575b600080fd5b61028f61028a36600461394c565b6105d0565b60405190151581526020015b60405180910390f35b600b546102c49073ffffffffffffffffffffffffffffffffffffffff1681565b60405173ffffffffffffffffffffffffffffffffffffffff909116815260200161029b565b6102f161062c565b60405161029b91906139d7565b6102c461030c3660046139ea565b6106be565b61032461031f366004613a25565b61079d565b005b6008545b60405190815260200161029b565b610324610346366004613a51565b610929565b61028f610359366004613baf565b6109ca565b61032a61036c366004613a25565b6109e0565b610324610aaf565b61032a610387366004613baf565b610c56565b61032461039a366004613a51565b610f7e565b6103246103ad366004613c18565b610f99565b61028f6103c03660046139ea565b6110a2565b61032a6103d33660046139ea565b6110ce565b6102f16103e6366004613c7a565b61118c565b61032a600d5481565b61032a610402366004613cb3565b600f6020526000908152604090205481565b6102c46104223660046139ea565b61121c565b61032a6104353660046139ea565b600e6020526000908152604090205481565b61032a610455366004613cb3565b6112ce565b61032461139c565b600a5473ffffffffffffffffffffffffffffffffffffffff166102c4565b61032a61048e366004613cd0565b611429565b61032a62093a8081565b6102f1611a4b565b6103246104b3366004613d99565b611a5a565b6103246104c6366004613dc7565b611a69565b6102f16104d93660046139ea565b611b11565b61032a6104ec366004613baf565b611be6565b6105046104ff3660046139ea565b611cab565b60405161029b929190613e33565b600c546102c49073ffffffffffffffffffffffffffffffffffffffff1681565b6102f1611ea6565b61028f610548366004613c7a565b73ffffffffffffffffffffffffffffffffffffffff918216600090815260056020908152604080832093909416825291909152205460ff1690565b610324610591366004613cb3565b611f61565b6103246105a4366004613cb3565b612091565b6102c47f000000000000000000000000000000000000000000000000000000000000000081565b60007fffffffff0000000000000000000000000000000000000000000000000000000082167f780e9d63000000000000000000000000000000000000000000000000000000001480610626575061062682612238565b92915050565b60606000805461063b90613e61565b80601f016020809104026020016040519081016040528092919081815260200182805461066790613e61565b80156106b45780601f10610689576101008083540402835291602001916106b4565b820191906000526020600020905b81548152906001019060200180831161069757829003601f168201915b5050505050905090565b60008181526002602052604081205473ffffffffffffffffffffffffffffffffffffffff16610774576040517f08c379a000000000000000000000000000000000000000000000000000000000815260206004820152602c60248201527f4552433732313a20617070726f76656420717565727920666f72206e6f6e657860448201527f697374656e7420746f6b656e000000000000000000000000000000000000000060648201526084015b60405180910390fd5b5060009081526004602052604090205473ffffffffffffffffffffffffffffffffffffffff1690565b60006107a88261121c565b90508073ffffffffffffffffffffffffffffffffffffffff168373ffffffffffffffffffffffffffffffffffffffff1603610865576040517f08c379a000000000000000000000000000000000000000000000000000000000815260206004820152602160248201527f4552433732313a20617070726f76616c20746f2063757272656e74206f776e6560448201527f7200000000000000000000000000000000000000000000000000000000000000606482015260840161076b565b3373ffffffffffffffffffffffffffffffffffffffff8216148061088e575061088e8133610548565b61091a576040517f08c379a000000000000000000000000000000000000000000000000000000000815260206004820152603860248201527f4552433732313a20617070726f76652063616c6c6572206973206e6f74206f7760448201527f6e6572206e6f7220617070726f76656420666f7220616c6c0000000000000000606482015260840161076b565b610924838361231b565b505050565b61093333826123bb565b6109bf576040517f08c379a000000000000000000000000000000000000000000000000000000000815260206004820152603160248201527f4552433732313a207472616e736665722063616c6c6572206973206e6f74206f60448201527f776e6572206e6f7220617070726f766564000000000000000000000000000000606482015260840161076b565b610924838383612527565b60006109d96103c08484611be6565b9392505050565b60006109eb836112ce565b8210610a79576040517f08c379a000000000000000000000000000000000000000000000000000000000815260206004820152602b60248201527f455243373231456e756d657261626c653a206f776e657220696e646578206f7560448201527f74206f6620626f756e6473000000000000000000000000000000000000000000606482015260840161076b565b5073ffffffffffffffffffffffffffffffffffffffff919091166000908152600660209081526040808320938352929052205490565b600d54600003610b1b576040517f08c379a000000000000000000000000000000000000000000000000000000000815260206004820152601d60248201527f6e6f20706f6c696379206368616e6765206973207363686564756c6564000000604482015260640161076b565b600d54421015610bad576040517f08c379a000000000000000000000000000000000000000000000000000000000815260206004820152602260248201527f706f6c6963792074696d656c6f636b206973206e6f742065787069726564207960448201527f6574000000000000000000000000000000000000000000000000000000000000606482015260840161076b565b600b54600c546040805173ffffffffffffffffffffffffffffffffffffffff93841681529290911660208301527f9fb4639eb3115274c0dca1893a5ffb376a717d9268b31846835ac71bcce5470b910160405180910390a1600c8054600b80547fffffffffffffffffffffffff000000000000000000000000000000000000000090811673ffffffffffffffffffffffffffffffffffffffff8416179091551690556000600d55565b600080610c638484611be6565b600b546040517f028c634100000000000000000000000000000000000000000000000000000000815291925060009173ffffffffffffffffffffffffffffffffffffffff9091169063028c634190610cc19088908890600401613e33565b6020604051808303816000875af1158015610ce0573d6000803e3d6000fd5b505050506040513d601f19601f82011682018060405250810190610d049190613eb4565b90508015610f05577f000000000000000000000000000000000000000000000000000000000000000073ffffffffffffffffffffffffffffffffffffffff166323b872dd33600b60009054906101000a900473ffffffffffffffffffffffffffffffffffffffff1673ffffffffffffffffffffffffffffffffffffffff1663b3f006746040518163ffffffff1660e01b81526004016020604051808303816000875af1158015610db8573d6000803e3d6000fd5b505050506040513d601f19601f82011682018060405250810190610ddc9190613ecd565b6040517fffffffff0000000000000000000000000000000000000000000000000000000060e085901b16815273ffffffffffffffffffffffffffffffffffffffff928316600482015291166024820152604481018490526064016020604051808303816000875af1158015610e55573d6000803e3d6000fd5b505050506040513d601f19601f82011682018060405250810190610e799190613eea565b610f05576040517f08c379a000000000000000000000000000000000000000000000000000000000815260206004820152602360248201527f6661696c656420746f207472616e7366657220726567697374726174696f6e2060448201527f6665650000000000000000000000000000000000000000000000000000000000606482015260840161076b565b610f0f3383612799565b600082815260106020526040902080610f288782613f55565b5060018101610f378682613f55565b50827f78727873095be2c06563917d0fd38ae9d5439ada6bd9914f32e979247ebbf19e878733604051610f6c9392919061406e565b60405180910390a25090949350505050565b61092483838360405180602001604052806000815250611a69565b6000610fa5848461118c565b90506000610fb2826127b3565b90506000610fc082856127ee565b90508573ffffffffffffffffffffffffffffffffffffffff168173ffffffffffffffffffffffffffffffffffffffff1614611057576040517f08c379a000000000000000000000000000000000000000000000000000000000815260206004820152601160248201527f696e76616c6964207369676e6174757265000000000000000000000000000000604482015260640161076b565b61106386866001612812565b73ffffffffffffffffffffffffffffffffffffffff86166000908152600f602052604081208054909190611096906140e9565b90915550505050505050565b60008181526002602052604081205473ffffffffffffffffffffffffffffffffffffffff161515610626565b60006110d960085490565b8210611167576040517f08c379a000000000000000000000000000000000000000000000000000000000815260206004820152602c60248201527f455243373231456e756d657261626c653a20676c6f62616c20696e646578206f60448201527f7574206f6620626f756e64730000000000000000000000000000000000000000606482015260840161076b565b6008828154811061117a5761117a614121565b90600052602060002001549050919050565b60606111af8273ffffffffffffffffffffffffffffffffffffffff16601461293f565b6111ba30601461293f565b73ffffffffffffffffffffffffffffffffffffffff85166000908152600f60205260409020546111e990612b82565b6111f246612b82565b6040516020016112059493929190614150565b604051602081830303815290604052905092915050565b60008181526002602052604081205473ffffffffffffffffffffffffffffffffffffffff1680610626576040517f08c379a000000000000000000000000000000000000000000000000000000000815260206004820152602960248201527f4552433732313a206f776e657220717565727920666f72206e6f6e657869737460448201527f656e7420746f6b656e0000000000000000000000000000000000000000000000606482015260840161076b565b600073ffffffffffffffffffffffffffffffffffffffff8216611373576040517f08c379a000000000000000000000000000000000000000000000000000000000815260206004820152602a60248201527f4552433732313a2062616c616e636520717565727920666f7220746865207a6560448201527f726f206164647265737300000000000000000000000000000000000000000000606482015260840161076b565b5073ffffffffffffffffffffffffffffffffffffffff1660009081526003602052604090205490565b600a5473ffffffffffffffffffffffffffffffffffffffff16331461141d576040517f08c379a000000000000000000000000000000000000000000000000000000000815260206004820181905260248201527f4f776e61626c653a2063616c6c6572206973206e6f7420746865206f776e6572604482015260640161076b565b6114276000612cb7565b565b6000806114368888611be6565b905061144233826123bb565b6114ce576040517f08c379a000000000000000000000000000000000000000000000000000000000815260206004820152602b60248201527f6e6f7420616c6c6f77656420746f2073656e642061206d6f766520666f72207460448201527f686973206163636f756e74000000000000000000000000000000000000000000606482015260840161076b565b6000818152600e60205260409020547fffffffffffffffffffffffffffffffffffffffffffffffffffffffffffffffff861461156d5780861461156d576040517f08c379a000000000000000000000000000000000000000000000000000000000815260206004820152600e60248201527f6e6f6e6365206d69736d61746368000000000000000000000000000000000000604482015260640161076b565b600b546040517f9e93e07200000000000000000000000000000000000000000000000000000000815260009173ffffffffffffffffffffffffffffffffffffffff1690639e93e072906115c6908d908c90600401613e33565b6020604051808303816000875af11580156115e5573d6000803e3d6000fd5b505050506040513d601f19601f820116820180604052508101906116099190613eb4565b905080156117e4577f000000000000000000000000000000000000000000000000000000000000000073ffffffffffffffffffffffffffffffffffffffff166323b872dd33600b60009054906101000a900473ffffffffffffffffffffffffffffffffffffffff1673ffffffffffffffffffffffffffffffffffffffff1663b3f006746040518163ffffffff1660e01b81526004016020604051808303816000875af11580156116bd573d6000803e3d6000fd5b505050506040513d601f19601f820116820180604052508101906116e19190613ecd565b6040517fffffffff0000000000000000000000000000000000000000000000000000000060e085901b16815273ffffffffffffffffffffffffffffffffffffffff928316600482015291166024820152604481018490526064016020604051808303816000875af115801561175a573d6000803e3d6000fd5b505050506040513d601f19601f8201168201806040525081019061177e9190613eea565b6117e4576040517f08c379a000000000000000000000000000000000000000000000000000000000815260206004820152601b60248201527f6661696c656420746f207472616e73666572206d6f7665206665650000000000604482015260640161076b565b73ffffffffffffffffffffffffffffffffffffffff851661189257851561188d576040517f08c379a000000000000000000000000000000000000000000000000000000000815260206004820152602160248201527f6e6f6e2d7a65726f20616d6f756e7420666f72207a65726f207265636569766560448201527f7200000000000000000000000000000000000000000000000000000000000000606482015260840161076b565b6119dd565b6040517f23b872dd00000000000000000000000000000000000000000000000000000000815233600482015273ffffffffffffffffffffffffffffffffffffffff8681166024830152604482018890527f000000000000000000000000000000000000000000000000000000000000000016906323b872dd906064016020604051808303816000875af115801561192d573d6000803e3d6000fd5b505050506040513d601f19601f820116820180604052508101906119519190613eea565b6119dd576040517f08c379a000000000000000000000000000000000000000000000000000000000815260206004820152602360248201527f6661696c656420746f2065786563757465207061796d656e742077697468206d60448201527f6f76650000000000000000000000000000000000000000000000000000000000606482015260840161076b565b827f1241ca91bf224e988427ae79840cc9e3a02fa0579a3bd3fffc1f5c363192a8738b8b8b86338c8c604051611a19979695949392919061427d565b60405180910390a2611a2c826001614309565b6000938452600e60205260409093209290925598975050505050505050565b60606001805461063b90613e61565b611a65338383612812565b5050565b611a7333836123bb565b611aff576040517f08c379a000000000000000000000000000000000000000000000000000000000815260206004820152603160248201527f4552433732313a207472616e736665722063616c6c6572206973206e6f74206f60448201527f776e6572206e6f7220617070726f766564000000000000000000000000000000606482015260840161076b565b611b0b84848484612d2e565b50505050565b6060600080611b1f84611cab565b600b546040517fc73c92d600000000000000000000000000000000000000000000000000000000815292945090925073ffffffffffffffffffffffffffffffffffffffff169063c73c92d690611b7b9085908590600401613e33565b600060405180830381865afa158015611b98573d6000803e3d6000fd5b505050506040513d6000823e601f3d9081017fffffffffffffffffffffffffffffffffffffffffffffffffffffffffffffffe0168201604052611bde919081019061431c565b949350505050565b60008083604051602001611bfa919061438a565b604051602081830303815290604052805190602001209050600083604051602001611c25919061438a565b604080517fffffffffffffffffffffffffffffffffffffffffffffffffffffffffffffffe081840301815282825280516020918201209083018590529082018190529150606001604080517fffffffffffffffffffffffffffffffffffffffffffffffffffffffffffffffe0818403018152919052805160209091012095945050505050565b606080600060106000858152602001908152602001600020604051806040016040529081600082018054611cde90613e61565b80601f0160208091040260200160405190810160405280929190818152602001828054611d0a90613e61565b8015611d575780601f10611d2c57610100808354040283529160200191611d57565b820191906000526020600020905b815481529060010190602001808311611d3a57829003601f168201915b50505050508152602001600182018054611d7090613e61565b80601f0160208091040260200160405190810160405280929190818152602001828054611d9c90613e61565b8015611de95780601f10611dbe57610100808354040283529160200191611de9565b820191906000526020600020905b815481529060010190602001808311611dcc57829003601f168201915b5050505050815250509050611e0681600001518260200151611be6565b8414611e94576040517f08c379a000000000000000000000000000000000000000000000000000000000815260206004820152602360248201527f6e6f206d61746368696e67206163636f756e7420666f756e6420666f7220746f60448201527f6b656e0000000000000000000000000000000000000000000000000000000000606482015260840161076b565b80516020909101519094909350915050565b600b54604080517fc0e24d5e000000000000000000000000000000000000000000000000000000008152905160609273ffffffffffffffffffffffffffffffffffffffff169163c0e24d5e9160048083019260009291908290030181865afa158015611f16573d6000803e3d6000fd5b505050506040513d6000823e601f3d9081017fffffffffffffffffffffffffffffffffffffffffffffffffffffffffffffffe0168201604052611f5c919081019061431c565b905090565b600a5473ffffffffffffffffffffffffffffffffffffffff163314611fe2576040517f08c379a000000000000000000000000000000000000000000000000000000000815260206004820181905260248201527f4f776e61626c653a2063616c6c6572206973206e6f7420746865206f776e6572604482015260640161076b565b73ffffffffffffffffffffffffffffffffffffffff8116612085576040517f08c379a000000000000000000000000000000000000000000000000000000000815260206004820152602660248201527f4f776e61626c653a206e6577206f776e657220697320746865207a65726f206160448201527f6464726573730000000000000000000000000000000000000000000000000000606482015260840161076b565b61208e81612cb7565b50565b600a5473ffffffffffffffffffffffffffffffffffffffff163314612112576040517f08c379a000000000000000000000000000000000000000000000000000000000815260206004820181905260248201527f4f776e61626c653a2063616c6c6572206973206e6f7420746865206f776e6572604482015260640161076b565b73ffffffffffffffffffffffffffffffffffffffff811661218f576040517f08c379a000000000000000000000000000000000000000000000000000000000815260206004820152601860248201527f696e76616c696420706f6c696379207363686564756c65640000000000000000604482015260640161076b565b600c80547fffffffffffffffffffffffff00000000000000000000000000000000000000001673ffffffffffffffffffffffffffffffffffffffff83161790556121dc62093a8042614309565b600d819055600c546040805173ffffffffffffffffffffffffffffffffffffffff909216825260208201929092527f2a008aa0ff0a4cfbcdc20efc217f22ff572793d7522ae7eac34d926e86de57dc910160405180910390a150565b60007fffffffff0000000000000000000000000000000000000000000000000000000082167f80ac58cd0000000000000000000000000000000000000000000000000000000014806122cb57507fffffffff0000000000000000000000000000000000000000000000000000000082167f5b5e139f00000000000000000000000000000000000000000000000000000000145b8061062657507f01ffc9a7000000000000000000000000000000000000000000000000000000007fffffffff00000000000000000000000000000000000000000000000000000000831614610626565b600081815260046020526040902080547fffffffffffffffffffffffff00000000000000000000000000000000000000001673ffffffffffffffffffffffffffffffffffffffff841690811790915581906123758261121c565b73ffffffffffffffffffffffffffffffffffffffff167f8c5be1e5ebec7d5bd14f71427d1e84f3dd0314c0f7b2291e5b200ac8c7c3b92560405160405180910390a45050565b60008181526002602052604081205473ffffffffffffffffffffffffffffffffffffffff1661246c576040517f08c379a000000000000000000000000000000000000000000000000000000000815260206004820152602c60248201527f4552433732313a206f70657261746f7220717565727920666f72206e6f6e657860448201527f697374656e7420746f6b656e0000000000000000000000000000000000000000606482015260840161076b565b60006124778361121c565b90508073ffffffffffffffffffffffffffffffffffffffff168473ffffffffffffffffffffffffffffffffffffffff1614806124e657508373ffffffffffffffffffffffffffffffffffffffff166124ce846106be565b73ffffffffffffffffffffffffffffffffffffffff16145b80611bde575073ffffffffffffffffffffffffffffffffffffffff80821660009081526005602090815260408083209388168352929052205460ff16611bde565b8273ffffffffffffffffffffffffffffffffffffffff166125478261121c565b73ffffffffffffffffffffffffffffffffffffffff16146125ea576040517f08c379a000000000000000000000000000000000000000000000000000000000815260206004820152602560248201527f4552433732313a207472616e736665722066726f6d20696e636f72726563742060448201527f6f776e6572000000000000000000000000000000000000000000000000000000606482015260840161076b565b73ffffffffffffffffffffffffffffffffffffffff821661268c576040517f08c379a0000000000000000000000000000000000000000000000000000000008152602060048201526024808201527f4552433732313a207472616e7366657220746f20746865207a65726f2061646460448201527f7265737300000000000000000000000000000000000000000000000000000000606482015260840161076b565b612697838383612dd1565b6126a260008261231b565b73ffffffffffffffffffffffffffffffffffffffff831660009081526003602052604081208054600192906126d89084906143a6565b909155505073ffffffffffffffffffffffffffffffffffffffff82166000908152600360205260408120805460019290612713908490614309565b909155505060008181526002602052604080822080547fffffffffffffffffffffffff00000000000000000000000000000000000000001673ffffffffffffffffffffffffffffffffffffffff86811691821790925591518493918716917fddf252ad1be2c89b69c2b068fc378daa952ba7f163c4a11628f55a4df523b3ef91a4505050565b611a65828260405180602001604052806000815250612ed7565b60006127bf8251612b82565b826040516020016127d19291906143b9565b604051602081830303815290604052805190602001209050919050565b60008060006127fd8585612f7a565b9150915061280a81612fe8565b509392505050565b8173ffffffffffffffffffffffffffffffffffffffff168373ffffffffffffffffffffffffffffffffffffffff16036128a7576040517f08c379a000000000000000000000000000000000000000000000000000000000815260206004820152601960248201527f4552433732313a20617070726f766520746f2063616c6c657200000000000000604482015260640161076b565b73ffffffffffffffffffffffffffffffffffffffff83811660008181526005602090815260408083209487168084529482529182902080547fffffffffffffffffffffffffffffffffffffffffffffffffffffffffffffff001686151590811790915591519182527f17307eab39ab6107e8899845ad3d59bd9653f200f220920489ca2b5937696c31910160405180910390a3505050565b6060600061294e836002614414565b612959906002614309565b67ffffffffffffffff81111561297157612971613a92565b6040519080825280601f01601f19166020018201604052801561299b576020820181803683370190505b5090507f3000000000000000000000000000000000000000000000000000000000000000816000815181106129d2576129d2614121565b60200101907effffffffffffffffffffffffffffffffffffffffffffffffffffffffffffff1916908160001a9053507f780000000000000000000000000000000000000000000000000000000000000081600181518110612a3557612a35614121565b60200101907effffffffffffffffffffffffffffffffffffffffffffffffffffffffffffff1916908160001a9053506000612a71846002614414565b612a7c906001614309565b90505b6001811115612b19577f303132333435363738396162636465660000000000000000000000000000000085600f1660108110612abd57612abd614121565b1a60f81b828281518110612ad357612ad3614121565b60200101907effffffffffffffffffffffffffffffffffffffffffffffffffffffffffffff1916908160001a90535060049490941c93612b128161442b565b9050612a7f565b5083156109d9576040517f08c379a000000000000000000000000000000000000000000000000000000000815260206004820181905260248201527f537472696e67733a20686578206c656e67746820696e73756666696369656e74604482015260640161076b565b606081600003612bc557505060408051808201909152600181527f3000000000000000000000000000000000000000000000000000000000000000602082015290565b8160005b8115612bef5780612bd9816140e9565b9150612be89050600a8361448f565b9150612bc9565b60008167ffffffffffffffff811115612c0a57612c0a613a92565b6040519080825280601f01601f191660200182016040528015612c34576020820181803683370190505b5090505b8415611bde57612c496001836143a6565b9150612c56600a866144a3565b612c61906030614309565b60f81b818381518110612c7657612c76614121565b60200101907effffffffffffffffffffffffffffffffffffffffffffffffffffffffffffff1916908160001a905350612cb0600a8661448f565b9450612c38565b600a805473ffffffffffffffffffffffffffffffffffffffff8381167fffffffffffffffffffffffff0000000000000000000000000000000000000000831681179093556040519116919082907f8be0079c531659141344cd1fd0a4f28419497f9722a3daafe3b4186f6b6457e090600090a35050565b612d39848484612527565b612d458484848461323c565b611b0b576040517f08c379a000000000000000000000000000000000000000000000000000000000815260206004820152603260248201527f4552433732313a207472616e7366657220746f206e6f6e20455243373231526560448201527f63656976657220696d706c656d656e7465720000000000000000000000000000606482015260840161076b565b73ffffffffffffffffffffffffffffffffffffffff8316612e3957612e3481600880546000838152600960205260408120829055600182018355919091527ff3f7a9fe364faab93b216da50a3214154f22a0a2b415b23a84c8169e8b636ee30155565b612e76565b8173ffffffffffffffffffffffffffffffffffffffff168373ffffffffffffffffffffffffffffffffffffffff1614612e7657612e76838261342f565b73ffffffffffffffffffffffffffffffffffffffff8216612e9a57610924816134e6565b8273ffffffffffffffffffffffffffffffffffffffff168273ffffffffffffffffffffffffffffffffffffffff1614610924576109248282613595565b612ee183836135e6565b612eee600084848461323c565b610924576040517f08c379a000000000000000000000000000000000000000000000000000000000815260206004820152603260248201527f4552433732313a207472616e7366657220746f206e6f6e20455243373231526560448201527f63656976657220696d706c656d656e7465720000000000000000000000000000606482015260840161076b565b6000808251604103612fb05760208301516040840151606085015160001a612fa4878285856137b4565b94509450505050612fe1565b8251604003612fd95760208301516040840151612fce8683836138cc565b935093505050612fe1565b506000905060025b9250929050565b6000816004811115612ffc57612ffc6144b7565b036130045750565b6001816004811115613018576130186144b7565b0361307f576040517f08c379a000000000000000000000000000000000000000000000000000000000815260206004820152601860248201527f45434453413a20696e76616c6964207369676e61747572650000000000000000604482015260640161076b565b6002816004811115613093576130936144b7565b036130fa576040517f08c379a000000000000000000000000000000000000000000000000000000000815260206004820152601f60248201527f45434453413a20696e76616c6964207369676e6174757265206c656e67746800604482015260640161076b565b600381600481111561310e5761310e6144b7565b0361319b576040517f08c379a000000000000000000000000000000000000000000000000000000000815260206004820152602260248201527f45434453413a20696e76616c6964207369676e6174757265202773272076616c60448201527f7565000000000000000000000000000000000000000000000000000000000000606482015260840161076b565b60048160048111156131af576131af6144b7565b0361208e576040517f08c379a000000000000000000000000000000000000000000000000000000000815260206004820152602260248201527f45434453413a20696e76616c6964207369676e6174757265202776272076616c60448201527f7565000000000000000000000000000000000000000000000000000000000000606482015260840161076b565b600073ffffffffffffffffffffffffffffffffffffffff84163b15613424576040517f150b7a0200000000000000000000000000000000000000000000000000000000815273ffffffffffffffffffffffffffffffffffffffff85169063150b7a02906132b39033908990889088906004016144e6565b6020604051808303816000875af192505050801561330c575060408051601f3d9081017fffffffffffffffffffffffffffffffffffffffffffffffffffffffffffffffe016820190925261330991810190614541565b60015b6133d9573d80801561333a576040519150601f19603f3d011682016040523d82523d6000602084013e61333f565b606091505b5080516000036133d1576040517f08c379a000000000000000000000000000000000000000000000000000000000815260206004820152603260248201527f4552433732313a207472616e7366657220746f206e6f6e20455243373231526560448201527f63656976657220696d706c656d656e7465720000000000000000000000000000606482015260840161076b565b805181602001fd5b7fffffffff00000000000000000000000000000000000000000000000000000000167f150b7a0200000000000000000000000000000000000000000000000000000000149050611bde565b506001949350505050565b6000600161343c846112ce565b61344691906143a6565b6000838152600760205260409020549091508082146134a65773ffffffffffffffffffffffffffffffffffffffff841660009081526006602090815260408083208584528252808320548484528184208190558352600790915290208190555b50600091825260076020908152604080842084905573ffffffffffffffffffffffffffffffffffffffff9094168352600681528383209183525290812055565b6008546000906134f8906001906143a6565b6000838152600960205260408120546008805493945090928490811061352057613520614121565b90600052602060002001549050806008838154811061354157613541614121565b60009182526020808320909101929092558281526009909152604080822084905585825281205560088054806135795761357961455e565b6001900381819060005260206000200160009055905550505050565b60006135a0836112ce565b73ffffffffffffffffffffffffffffffffffffffff9093166000908152600660209081526040808320868452825280832085905593825260079052919091209190915550565b73ffffffffffffffffffffffffffffffffffffffff8216613663576040517f08c379a000000000000000000000000000000000000000000000000000000000815260206004820181905260248201527f4552433732313a206d696e7420746f20746865207a65726f2061646472657373604482015260640161076b565b60008181526002602052604090205473ffffffffffffffffffffffffffffffffffffffff16156136ef576040517f08c379a000000000000000000000000000000000000000000000000000000000815260206004820152601c60248201527f4552433732313a20746f6b656e20616c7265616479206d696e74656400000000604482015260640161076b565b6136fb60008383612dd1565b73ffffffffffffffffffffffffffffffffffffffff82166000908152600360205260408120805460019290613731908490614309565b909155505060008181526002602052604080822080547fffffffffffffffffffffffff00000000000000000000000000000000000000001673ffffffffffffffffffffffffffffffffffffffff861690811790915590518392907fddf252ad1be2c89b69c2b068fc378daa952ba7f163c4a11628f55a4df523b3ef908290a45050565b6000807f7fffffffffffffffffffffffffffffff5d576e7357a4501ddfe92f46681b20a08311156137eb57506000905060036138c3565b8460ff16601b1415801561380357508460ff16601c14155b1561381457506000905060046138c3565b6040805160008082526020820180845289905260ff881692820192909252606081018690526080810185905260019060a0016020604051602081039080840390855afa158015613868573d6000803e3d6000fd5b50506040517fffffffffffffffffffffffffffffffffffffffffffffffffffffffffffffffe0015191505073ffffffffffffffffffffffffffffffffffffffff81166138bc576000600192509250506138c3565b9150600090505b94509492505050565b6000807f7fffffffffffffffffffffffffffffffffffffffffffffffffffffffffffffff83168161390260ff86901c601b614309565b9050613910878288856137b4565b935093505050935093915050565b7fffffffff000000000000000000000000000000000000000000000000000000008116811461208e57600080fd5b60006020828403121561395e57600080fd5b81356109d98161391e565b60005b8381101561398457818101518382015260200161396c565b50506000910152565b600081518084526139a5816020860160208601613969565b601f017fffffffffffffffffffffffffffffffffffffffffffffffffffffffffffffffe0169290920160200192915050565b6020815260006109d9602083018461398d565b6000602082840312156139fc57600080fd5b5035919050565b73ffffffffffffffffffffffffffffffffffffffff8116811461208e57600080fd5b60008060408385031215613a3857600080fd5b8235613a4381613a03565b946020939093013593505050565b600080600060608486031215613a6657600080fd5b8335613a7181613a03565b92506020840135613a8181613a03565b929592945050506040919091013590565b7f4e487b7100000000000000000000000000000000000000000000000000000000600052604160045260246000fd5b604051601f82017fffffffffffffffffffffffffffffffffffffffffffffffffffffffffffffffe016810167ffffffffffffffff81118282101715613b0857613b08613a92565b604052919050565b600067ffffffffffffffff821115613b2a57613b2a613a92565b50601f017fffffffffffffffffffffffffffffffffffffffffffffffffffffffffffffffe01660200190565b600082601f830112613b6757600080fd5b8135602083016000613b80613b7b84613b10565b613ac1565b9050828152858383011115613b9457600080fd5b82826020830137600092810160200192909252509392505050565b60008060408385031215613bc257600080fd5b823567ffffffffffffffff811115613bd957600080fd5b613be585828601613b56565b925050602083013567ffffffffffffffff811115613c0257600080fd5b613c0e85828601613b56565b9150509250929050565b600080600060608486031215613c2d57600080fd5b8335613c3881613a03565b92506020840135613c4881613a03565b9150604084013567ffffffffffffffff811115613c6457600080fd5b613c7086828701613b56565b9150509250925092565b60008060408385031215613c8d57600080fd5b8235613c9881613a03565b91506020830135613ca881613a03565b809150509250929050565b600060208284031215613cc557600080fd5b81356109d981613a03565b60008060008060008060c08789031215613ce957600080fd5b863567ffffffffffffffff811115613d0057600080fd5b613d0c89828a01613b56565b965050602087013567ffffffffffffffff811115613d2957600080fd5b613d3589828a01613b56565b955050604087013567ffffffffffffffff811115613d5257600080fd5b613d5e89828a01613b56565b945050606087013592506080870135915060a0870135613d7d81613a03565b809150509295509295509295565b801515811461208e57600080fd5b60008060408385031215613dac57600080fd5b8235613db781613a03565b91506020830135613ca881613d8b565b60008060008060808587031215613ddd57600080fd5b8435613de881613a03565b93506020850135613df881613a03565b925060408501359150606085013567ffffffffffffffff811115613e1b57600080fd5b613e2787828801613b56565b91505092959194509250565b604081526000613e46604083018561398d565b8281036020840152613e58818561398d565b95945050505050565b600181811c90821680613e7557607f821691505b602082108103613eae577f4e487b7100000000000000000000000000000000000000000000000000000000600052602260045260246000fd5b50919050565b600060208284031215613ec657600080fd5b5051919050565b600060208284031215613edf57600080fd5b81516109d981613a03565b600060208284031215613efc57600080fd5b81516109d981613d8b565b601f82111561092457806000526020600020601f840160051c81016020851015613f2e5750805b601f840160051c820191505b81811015613f4e5760008155600101613f3a565b5050505050565b815167ffffffffffffffff811115613f6f57613f6f613a92565b613f8381613f7d8454613e61565b84613f07565b6020601f821160018114613fd55760008315613f9f5750848201515b7fffffffffffffffffffffffffffffffffffffffffffffffffffffffffffffffff600385901b1c1916600184901b178455613f4e565b6000848152602081207fffffffffffffffffffffffffffffffffffffffffffffffffffffffffffffffe08516915b828110156140235787850151825560209485019460019092019101614003565b508482101561405f57868401517fffffffffffffffffffffffffffffffffffffffffffffffffffffffffffffffff600387901b60f8161c191681555b50505050600190811b01905550565b606081526000614081606083018661398d565b8281036020840152614093818661398d565b91505073ffffffffffffffffffffffffffffffffffffffff83166040830152949350505050565b7f4e487b7100000000000000000000000000000000000000000000000000000000600052601160045260246000fd5b60007fffffffffffffffffffffffffffffffffffffffffffffffffffffffffffffffff820361411a5761411a6140ba565b5060010190565b7f4e487b7100000000000000000000000000000000000000000000000000000000600052603260045260246000fd5b7f49207065726d6974200000000000000000000000000000000000000000000000815260008551614188816009850160208a01613969565b7f20746f206d616e61676520616c6c206d792058617961206e616d65732e0a0a436009918401918201527f6f6e74726163743a200000000000000000000000000000000000000000000000602982015285516141eb816032840160208a01613969565b6009818301019150507f0a4e6f6e63653a200000000000000000000000000000000000000000000000006029820152845161422d816031840160208901613969565b6029818301019150507f0a436861696e3a200000000000000000000000000000000000000000000000006008820152835161426f816010840160208801613969565b016010019695505050505050565b60e08152600061429060e083018a61398d565b82810360208401526142a2818a61398d565b905082810360408401526142b6818961398d565b91505085606083015273ffffffffffffffffffffffffffffffffffffffff851660808301528360a083015273ffffffffffffffffffffffffffffffffffffffff831660c083015298975050505050505050565b80820180821115610626576106266140ba565b60006020828403121561432e57600080fd5b815167ffffffffffffffff81111561434557600080fd5b8201601f8101841361435657600080fd5b8051614364613b7b82613b10565b81815285602083850101111561437957600080fd5b613e58826020830160208601613969565b6000825161439c818460208701613969565b9190910192915050565b81810381811115610626576106266140ba565b7f19457468657265756d205369676e6564204d6573736167653a0a0000000000008152600083516143f181601a850160208801613969565b83519083019061440881601a840160208801613969565b01601a01949350505050565b8082028115828204841417610626576106266140ba565b60008161443a5761443a6140ba565b507fffffffffffffffffffffffffffffffffffffffffffffffffffffffffffffffff0190565b7f4e487b7100000000000000000000000000000000000000000000000000000000600052601260045260246000fd5b60008261449e5761449e614460565b500490565b6000826144b2576144b2614460565b500690565b7f4e487b7100000000000000000000000000000000000000000000000000000000600052602160045260246000fd5b73ffffffffffffffffffffffffffffffffffffffff8516815273ffffffffffffffffffffffffffffffffffffffff84166020820152826040820152608060608201526000614537608083018461398d565b9695505050505050565b60006020828403121561455357600080fd5b81516109d98161391e565b7f4e487b7100000000000000000000000000000000000000000000000000000000600052603160045260246000fdfea2646970667358221220297fc70f6c821fae5dcd70e9b72663b8e7f8ddda88a24bc06187e0d95a8e939064736f6c634300081c0033","linkReferences":{}},"methodIdentifiers":{"approve(address,uint256)":"095ea7b3","balanceOf(address)":"70a08231","contractURI()":"e8a3d485","enactPolicyChange()":"32f43324","exists(string,string)":"2656554c","exists(uint256)":"4f558e79","getApproved(uint256)":"081812fc","isApprovedForAll(address,address)":"e985e9c5","move(string,string,string,uint256,uint256,address)":"90113282","name()":"06fdde03","nextNonce(uint256)":"67cbe2d5","nextPermitNonce(address)":"5c0c1582","nextPolicy()":"e0a6f028","nextPolicyAfter()":"5bbebd19","owner()":"8da5cb5b","ownerOf(uint256)":"6352211e","permitOperator(address,address,bytes)":"4f1ed09e","permitOperatorMessage(address,address)":"56aabfb9","policy()":"0505c8c9","policyTimelock()":"90305e28","register(string,string)":"3ffbd47f","renounceOwnership()":"715018a6","safeTransferFrom(address,address,uint256)":"42842e0e","safeTransferFrom(address,address,uint256,bytes)":"b88d4fde","schedulePolicyChange(address)":"f7935b1e","setApprovalForAll(address,bool)":"a22cb465","supportsInterface(bytes4)":"01ffc9a7","symbol()":"95d89b41","tokenByIndex(uint256)":"4f6ccce7","tokenIdForName(string,string)":"d89d75d8","tokenIdToName(uint256)":"da2bfdb1","tokenOfOwnerByIndex(address,uint256)":"2f745c59","tokenURI(uint256)":"c87b56dd","totalSupply()":"18160ddd","transferFrom(address,address,uint256)":"23b872dd","transferOwnership(address)":"f2fde38b","wchiToken()":"f94e3cac"},"id":46}