{
  "contractName": "XayaDelegation",
  "abi": [
    {
      "inputs": [
        {
          "internalType": "contract IXayaAccounts",
          "name": "acc",
          "type": "address"
        },
        {
          "internalType": "address",
          "name": "fwd",
          "type": "address"
        }
      ],
      "stateMutability": "nonpayable",
      "type": "constructor"
    },
    {
      "anonymous": false,
      "inputs": [
        {
          "indexed": true,
          "internalType": "uint256",
          "name": "tokenId",
          "type": "uint256"
        },
        {
          "indexed": true,
          "internalType": "address",
          "name": "owner",
          "type": "address"
        },
        {
          "indexed": false,
          "internalType": "string[]",
          "name": "path",
          "type": "string[]"
        },
        {
          "indexed": false,
          "internalType": "address",
          "name": "operator",
          "type": "address"
        },
        {
          "indexed": false,
          "internalType": "uint256",
          "name": "expiration",
          "type": "uint256"
        },
        {
          "indexed": false,
          "internalType": "bool",
          "name": "fallbackOnly",
          "type": "bool"
        }
      ],
      "name": "PermissionGranted",
      "type": "event"
    },
    {
      "anonymous": false,
      "inputs": [
        {
          "indexed": true,
          "internalType": "uint256",
          "name": "tokenId",
          "type": "uint256"
        },
        {
          "indexed": true,
          "internalType": "address",
          "name": "owner",
          "type": "address"
        },
        {
          "indexed": false,
          "internalType": "string[]",
          "name": "path",
          "type": "string[]"
        },
        {
          "indexed": false,
          "internalType": "address",
          "name": "operator",
          "type": "address"
        },
        {
          "indexed": false,
          "internalType": "bool",
          "name": "fallbackOnly",
          "type": "bool"
        }
      ],
      "name": "PermissionRevoked",
      "type": "event"
    },
    {
      "anonymous": false,
      "inputs": [
        {
          "indexed": true,
          "internalType": "uint256",
          "name": "tokenId",
          "type": "uint256"
        },
        {
          "indexed": true,
          "internalType": "address",
          "name": "owner",
          "type": "address"
        },
        {
          "indexed": false,
          "internalType": "string[]",
          "name": "path",
          "type": "string[]"
        },
        {
          "indexed": false,
          "internalType": "uint256",
          "name": "atTime",
          "type": "uint256"
        }
      ],
      "name": "PermissionTreeExpired",
      "type": "event"
    },
    {
      "anonymous": false,
      "inputs": [
        {
          "indexed": true,
          "internalType": "uint256",
          "name": "tokenId",
          "type": "uint256"
        },
        {
          "indexed": true,
          "internalType": "address",
          "name": "owner",
          "type": "address"
        },
        {
          "indexed": false,
          "internalType": "string[]",
          "name": "path",
          "type": "string[]"
        }
      ],
      "name": "PermissionTreeReset",
      "type": "event"
    },
    {
      "inputs": [],
      "name": "accounts",
      "outputs": [
        {
          "internalType": "contract IXayaAccounts",
          "name": "",
          "type": "address"
        }
      ],
      "stateMutability": "view",
      "type": "function",
      "constant": true
    },
    {
      "inputs": [
        {
          "internalType": "uint256",
          "name": "tokenId",
          "type": "uint256"
        },
        {
          "internalType": "address",
          "name": "owner",
          "type": "address"
        },
        {
          "internalType": "string[]",
          "name": "path",
          "type": "string[]"
        }
      ],
      "name": "getDefinedKeys",
      "outputs": [
        {
          "internalType": "string[]",
          "name": "children",
          "type": "string[]"
        },
        {
          "internalType": "address[]",
          "name": "fullAccess",
          "type": "address[]"
        },
        {
          "internalType": "address[]",
          "name": "fallbackAccess",
          "type": "address[]"
        }
      ],
      "stateMutability": "view",
      "type": "function",
      "constant": true
    },
    {
      "inputs": [
        {
          "internalType": "uint256",
          "name": "tokenId",
          "type": "uint256"
        },
        {
          "internalType": "address",
          "name": "owner",
          "type": "address"
        },
        {
          "internalType": "string[]",
          "name": "path",
          "type": "string[]"
        },
        {
          "internalType": "address",
          "name": "operator",
          "type": "address"
        },
        {
          "internalType": "bool",
          "name": "fallbackOnly",
          "type": "bool"
        }
      ],
      "name": "getExpiration",
      "outputs": [
        {
          "internalType": "uint256",
          "name": "",
          "type": "uint256"
        }
      ],
      "stateMutability": "view",
      "type": "function",
      "constant": true
    },
    {
      "inputs": [
        {
          "internalType": "address",
          "name": "forwarder",
          "type": "address"
        }
      ],
      "name": "isTrustedForwarder",
      "outputs": [
        {
          "internalType": "bool",
          "name": "",
          "type": "bool"
        }
      ],
      "stateMutability": "view",
      "type": "function",
      "constant": true
    },
    {
      "inputs": [
        {
          "internalType": "uint256",
          "name": "tokenId",
          "type": "uint256"
        },
        {
          "internalType": "address",
          "name": "owner",
          "type": "address"
        },
        {
          "internalType": "string[]",
          "name": "path",
          "type": "string[]"
        },
        {
          "internalType": "address",
          "name": "operator",
          "type": "address"
        },
        {
          "internalType": "bool",
          "name": "fallbackOnly",
          "type": "bool"
        }
      ],
      "name": "permissionExists",
      "outputs": [
        {
          "internalType": "bool",
          "name": "",
          "type": "bool"
        }
      ],
      "stateMutability": "view",
      "type": "function",
      "constant": true
    },
    {
      "inputs": [
        {
          "internalType": "uint256",
          "name": "tokenId",
          "type": "uint256"
        },
        {
          "internalType": "address",
          "name": "owner",
          "type": "address"
        },
        {
          "internalType": "string[]",
          "name": "path",
          "type": "string[]"
        }
      ],
      "name": "permissionExists",
      "outputs": [
        {
          "internalType": "bool",
          "name": "",
          "type": "bool"
        }
      ],
      "stateMutability": "view",
      "type": "function",
      "constant": true
    },
    {
      "inputs": [],
      "name": "wchi",
      "outputs": [
        {
          "internalType": "contract IERC20",
          "name": "",
          "type": "address"
        }
      ],
      "stateMutability": "view",
      "type": "function",
      "constant": true
    },
    {
      "inputs": [
        {
          "internalType": "address",
          "name": "",
          "type": "address"
        },
        {
          "internalType": "address",
          "name": "",
          "type": "address"
        },
        {
          "internalType": "uint256",
          "name": "",
          "type": "uint256"
        },
        {
          "internalType": "bytes",
          "name": "",
          "type": "bytes"
        }
      ],
      "name": "onERC721Received",
      "outputs": [
        {
          "internalType": "bytes4",
          "name": "",
          "type": "bytes4"
        }
      ],
      "stateMutability": "view",
      "type": "function",
      "constant": true
    },
    {
      "inputs": [
        {
          "internalType": "string",
          "name": "ns",
          "type": "string"
        },
        {
          "internalType": "string",
          "name": "name",
          "type": "string"
        },
        {
          "internalType": "address",
          "name": "owner",
          "type": "address"
        },
        {
          "internalType": "bytes",
          "name": "signature",
          "type": "bytes"
        }
      ],
      "name": "registerFor",
      "outputs": [
        {
          "internalType": "uint256",
          "name": "tokenId",
          "type": "uint256"
        }
      ],
      "stateMutability": "nonpayable",
      "type": "function"
    },
    {
      "inputs": [
        {
          "internalType": "string",
          "name": "ns",
          "type": "string"
        },
        {
          "internalType": "string",
          "name": "name",
          "type": "string"
        }
      ],
      "name": "takeOverName",
      "outputs": [],
      "stateMutability": "nonpayable",
      "type": "function"
    },
    {
      "inputs": [
        {
          "internalType": "string",
          "name": "ns",
          "type": "string"
        },
        {
          "internalType": "string",
          "name": "name",
          "type": "string"
        },
        {
          "internalType": "string[]",
          "name": "path",
          "type": "string[]"
        },
        {
          "internalType": "string",
          "name": "mv",
          "type": "string"
        },
        {
          "internalType": "uint256",
          "name": "nonce",
          "type": "uint256"
        },
        {
          "internalType": "uint256",
          "name": "amount",
          "type": "uint256"
        },
        {
          "internalType": "address",
          "name": "receiver",
          "type": "address"
        }
      ],
      "name": "sendHierarchicalMove",
      "outputs": [
        {
          "internalType": "uint256",
          "name": "",
          "type": "uint256"
        }
      ],
      "stateMutability": "nonpayable",
      "type": "function"
    },
    {
      "inputs": [
        {
          "internalType": "string",
          "name": "ns",
          "type": "string"
        },
        {
          "internalType": "string",
          "name": "name",
          "type": "string"
        },
        {
          "internalType": "string[]",
          "name": "path",
          "type": "string[]"
        },
        {
          "internalType": "string",
          "name": "mv",
          "type": "string"
        }
      ],
      "name": "sendHierarchicalMove",
      "outputs": [
        {
          "internalType": "uint256",
          "name": "",
          "type": "uint256"
        }
      ],
      "stateMutability": "nonpayable",
      "type": "function"
    },
    {
      "inputs": [
        {
          "internalType": "uint256",
          "name": "tokenId",
          "type": "uint256"
        },
        {
          "internalType": "address",
          "name": "owner",
          "type": "address"
        },
        {
          "internalType": "string[]",
          "name": "path",
          "type": "string[]"
        },
        {
          "internalType": "address",
          "name": "operator",
          "type": "address"
        },
        {
          "internalType": "uint256",
          "name": "atTime",
          "type": "uint256"
        }
      ],
      "name": "hasAccess",
      "outputs": [
        {
          "internalType": "bool",
          "name": "",
          "type": "bool"
        }
      ],
      "stateMutability": "view",
      "type": "function",
      "constant": true
    },
    {
      "inputs": [
        {
          "internalType": "string",
          "name": "ns",
          "type": "string"
        },
        {
          "internalType": "string",
          "name": "name",
          "type": "string"
        },
        {
          "internalType": "string[]",
          "name": "path",
          "type": "string[]"
        },
        {
          "internalType": "address",
          "name": "operator",
          "type": "address"
        },
        {
          "internalType": "uint256",
          "name": "atTime",
          "type": "uint256"
        }
      ],
      "name": "hasAccess",
      "outputs": [
        {
          "internalType": "bool",
          "name": "",
          "type": "bool"
        }
      ],
      "stateMutability": "view",
      "type": "function",
      "constant": true
    },
    {
      "inputs": [
        {
          "internalType": "uint256",
          "name": "tokenId",
          "type": "uint256"
        },
        {
          "internalType": "address",
          "name": "owner",
          "type": "address"
        },
        {
          "internalType": "string[]",
          "name": "path",
          "type": "string[]"
        },
        {
          "internalType": "address",
          "name": "operator",
          "type": "address"
        },
        {
          "internalType": "uint256",
          "name": "expiration",
          "type": "uint256"
        },
        {
          "internalType": "bool",
          "name": "fallbackOnly",
          "type": "bool"
        }
      ],
      "name": "grant",
      "outputs": [],
      "stateMutability": "nonpayable",
      "type": "function"
    },
    {
      "inputs": [
        {
          "internalType": "string",
          "name": "ns",
          "type": "string"
        },
        {
          "internalType": "string",
          "name": "name",
          "type": "string"
        },
        {
          "internalType": "string[]",
          "name": "path",
          "type": "string[]"
        },
        {
          "internalType": "address",
          "name": "operator",
          "type": "address"
        },
        {
          "internalType": "uint256",
          "name": "expiration",
          "type": "uint256"
        },
        {
          "internalType": "bool",
          "name": "fallbackOnly",
          "type": "bool"
        }
      ],
      "name": "grant",
      "outputs": [],
      "stateMutability": "nonpayable",
      "type": "function"
    },
    {
      "inputs": [
        {
          "internalType": "uint256",
          "name": "tokenId",
          "type": "uint256"
        },
        {
          "internalType": "address",
          "name": "owner",
          "type": "address"
        },
        {
          "internalType": "string[]",
          "name": "path",
          "type": "string[]"
        },
        {
          "internalType": "address",
          "name": "operator",
          "type": "address"
        },
        {
          "internalType": "bool",
          "name": "fallbackOnly",
          "type": "bool"
        }
      ],
      "name": "revoke",
      "outputs": [],
      "stateMutability": "nonpayable",
      "type": "function"
    },
    {
      "inputs": [
        {
          "internalType": "string",
          "name": "ns",
          "type": "string"
        },
        {
          "internalType": "string",
          "name": "name",
          "type": "string"
        },
        {
          "internalType": "string[]",
          "name": "path",
          "type": "string[]"
        },
        {
          "internalType": "address",
          "name": "operator",
          "type": "address"
        },
        {
          "internalType": "bool",
          "name": "fallbackOnly",
          "type": "bool"
        }
      ],
      "name": "revoke",
      "outputs": [],
      "stateMutability": "nonpayable",
      "type": "function"
    },
    {
      "inputs": [
        {
          "internalType": "uint256",
          "name": "tokenId",
          "type": "uint256"
        },
        {
          "internalType": "address",
          "name": "owner",
          "type": "address"
        },
        {
          "internalType": "string[]",
          "name": "path",
          "type": "string[]"
        }
      ],
      "name": "resetTree",
      "outputs": [],
      "stateMutability": "nonpayable",
      "type": "function"
    },
    {
      "inputs": [
        {
          "internalType": "string",
          "name": "ns",
          "type": "string"
        },
        {
          "internalType": "string",
          "name": "name",
          "type": "string"
        },
        {
          "internalType": "string[]",
          "name": "path",
          "type": "string[]"
        }
      ],
      "name": "resetTree",
      "outputs": [],
      "stateMutability": "nonpayable",
      "type": "function"
    },
    {
      "inputs": [
        {
          "internalType": "string",
          "name": "ns",
          "type": "string"
        },
        {
          "internalType": "string",
          "name": "name",
          "type": "string"
        },
        {
          "internalType": "string[]",
          "name": "path",
          "type": "string[]"
        }
      ],
      "name": "expireTree",
      "outputs": [],
      "stateMutability": "nonpayable",
      "type": "function"
    },
    {
      "inputs": [
        {
          "internalType": "uint256",
          "name": "tokenId",
          "type": "uint256"
        },
        {
          "internalType": "address",
          "name": "owner",
          "type": "address"
        },
        {
          "internalType": "string[]",
          "name": "path",
          "type": "string[]"
        }
      ],
      "name": "expireTree",
      "outputs": [],
      "stateMutability": "nonpayable",
      "type": "function"
    }
  ],
  "bytecode": "0x60e06040523480156200001157600080fd5b50604051620043553803806200435583398101604081905262000034916200014e565b6001600160a01b03808216608052821660a081905260408051633e538f2b60e21b8152905163f94e3cac9160048082019260209290919082900301816000875af115801562000087573d6000803e3d6000fd5b505050506040513d601f19601f82011682018060405250810190620000ad91906200018d565b6001600160a01b0390811660c081905260a05160405163095ea7b360e01b81529216600483015260001960248301529063095ea7b3906044016020604051808303816000875af115801562000106573d6000803e3d6000fd5b505050506040513d601f19601f820116820180604052508101906200012c9190620001b4565b505050620001d8565b6001600160a01b03811681146200014b57600080fd5b50565b600080604083850312156200016257600080fd5b82516200016f8162000135565b6020840151909250620001828162000135565b809150509250929050565b600060208284031215620001a057600080fd5b8151620001ad8162000135565b9392505050565b600060208284031215620001c757600080fd5b81518015158114620001ad57600080fd5b60805160a05160c0516140f26200026360003960008181610252015281816107700152610aff015260008181610335015281816104520152818161065001528181610917015281816109e901528181610cd001528181610dc701528181610e64015281816114b101528181611d400152611e0c0152600081816102de0152611ff501526140f26000f3fe608060405234801561001057600080fd5b50600436106101825760003560e01c806368cd03f6116100d857806395084c441161008c578063e3fc7abd11610066578063e3fc7abd146103dc578063f0b491ba146103ef578063f113ed0c1461040257600080fd5b806395084c44146103a3578063b06c7d3f146103b6578063d1cc6460146103c957600080fd5b80637b8fde61116100bd5780637b8fde611461036a5780638ae003dc1461037d578063921b30791461039057600080fd5b806368cd03f6146103305780637ab3f4401461035757600080fd5b80633ed0d7831161013a5780634fc156d2116101145780634fc156d2146102bb578063572b6c05146102ce5780635fa35c4d1461031b57600080fd5b80633ed0d7831461023a578063439a7da71461024d5780634d540c881461029957600080fd5b80632999e0ac1161016b5780632999e0ac146101f3578063347d6a221461021457806339701eb81461022757600080fd5b80630f95726d14610187578063150b7a02146101af575b600080fd5b61019a61019536600461321a565b610415565b60405190151581526020015b60405180910390f35b6101c26101bd36600461329b565b610438565b6040517fffffffff0000000000000000000000000000000000000000000000000000000090911681526020016101a6565b61020661020136600461333a565b61059b565b6040519081526020016101a6565b61020661022236600461340b565b6109a7565b6102066102353660046134b8565b6109e4565b61019a61024836600461355d565b610f80565b6102747f000000000000000000000000000000000000000000000000000000000000000081565b60405173ffffffffffffffffffffffffffffffffffffffff90911681526020016101a6565b6102ac6102a73660046135d1565b611000565b6040516101a693929190613746565b61019a6102c936600461377f565b6111c1565b61019a6102dc366004613800565b7f000000000000000000000000000000000000000000000000000000000000000073ffffffffffffffffffffffffffffffffffffffff90811691161490565b61032e61032936600461381d565b6111ed565b005b6102747f000000000000000000000000000000000000000000000000000000000000000081565b61032e61036536600461389b565b611210565b61032e610378366004613924565b611321565b61019a61038b3660046135d1565b61134a565b61032e61039e3660046139a6565b611362565b61032e6103b13660046135d1565b6115d8565b61032e6103c43660046135d1565b611670565b61032e6103d736600461321a565b61180c565b61032e6103ea36600461381d565b61196e565b6102066103fd36600461321a565b61198a565b61032e610410366004613a0a565b6119a6565b60008061042587878787876119cd565b6001015415159150505b95945050505050565b60003373ffffffffffffffffffffffffffffffffffffffff7f000000000000000000000000000000000000000000000000000000000000000016146104de576040517f08c379a000000000000000000000000000000000000000000000000000000000815260206004820152601f60248201527f6f6e6c792058617961206e616d65732063616e2062652072656365697665640060448201526064015b60405180910390fd5b60015460ff16610570576040517f08c379a000000000000000000000000000000000000000000000000000000000815260206004820152602760248201527f746f6b656e732063616e6e6f742062652072656365697665642061742074686560448201527f206d6f6d656e740000000000000000000000000000000000000000000000000060648201526084016104d5565b507f150b7a020000000000000000000000000000000000000000000000000000000095945050505050565b60006105b18888886105ab611a41565b426111c1565b61063d576040517f08c379a000000000000000000000000000000000000000000000000000000000815260206004820152603260248201527f746865206d6573736167652073656e64657220686173206e6f207065726d697360448201527f73696f6e20746f2073656e64206d6f766573000000000000000000000000000060648201526084016104d5565b60006106498787611a50565b90506000847f000000000000000000000000000000000000000000000000000000000000000073ffffffffffffffffffffffffffffffffffffffff16630505c8c96040518163ffffffff1660e01b81526004016020604051808303816000875af11580156106bb573d6000803e3d6000fd5b505050506040513d601f19601f820116820180604052508101906106df9190613a8b565b73ffffffffffffffffffffffffffffffffffffffff16639e93e0728c856040518363ffffffff1660e01b8152600401610719929190613aa8565b6020604051808303816000875af1158015610738573d6000803e3d6000fd5b505050506040513d601f19601f8201168201806040525081019061075c9190613acd565b6107669190613b15565b905080156108da577f000000000000000000000000000000000000000000000000000000000000000073ffffffffffffffffffffffffffffffffffffffff166323b872dd6107b2611a41565b6040517fffffffff0000000000000000000000000000000000000000000000000000000060e084901b16815273ffffffffffffffffffffffffffffffffffffffff9091166004820152306024820152604481018490526064016020604051808303816000875af115801561082a573d6000803e3d6000fd5b505050506040513d601f19601f8201168201806040525081019061084e9190613b2d565b6108da576040517f08c379a000000000000000000000000000000000000000000000000000000000815260206004820152602160248201527f6661696c656420746f206f627461696e20574348492066726f6d2073656e646560448201527f720000000000000000000000000000000000000000000000000000000000000060648201526084016104d5565b6040517f9011328200000000000000000000000000000000000000000000000000000000815273ffffffffffffffffffffffffffffffffffffffff7f00000000000000000000000000000000000000000000000000000000000000001690639011328290610956908d908d9087908c908c908c90600401613b4a565b6020604051808303816000875af1158015610975573d6000803e3d6000fd5b505050506040513d601f19601f820116820180604052508101906109999190613acd565b9a9950505050505050505050565b60006109d9858585857fffffffffffffffffffffffffffffffffffffffffffffffffffffffffffffffff60008061059b565b90505b949350505050565b6000807f000000000000000000000000000000000000000000000000000000000000000073ffffffffffffffffffffffffffffffffffffffff16630505c8c96040518163ffffffff1660e01b81526004016020604051808303816000875af1158015610a54573d6000803e3d6000fd5b505050506040513d601f19601f82011682018060405250810190610a789190613a8b565b73ffffffffffffffffffffffffffffffffffffffff1663028c634187876040518363ffffffff1660e01b8152600401610ab2929190613aa8565b6020604051808303816000875af1158015610ad1573d6000803e3d6000fd5b505050506040513d601f19601f82011682018060405250810190610af59190613acd565b90508015610c69577f000000000000000000000000000000000000000000000000000000000000000073ffffffffffffffffffffffffffffffffffffffff166323b872dd610b41611a41565b6040517fffffffff0000000000000000000000000000000000000000000000000000000060e084901b16815273ffffffffffffffffffffffffffffffffffffffff9091166004820152306024820152604481018490526064016020604051808303816000875af1158015610bb9573d6000803e3d6000fd5b505050506040513d601f19601f82011682018060405250810190610bdd9190613b2d565b610c69576040517f08c379a000000000000000000000000000000000000000000000000000000000815260206004820152602160248201527f6661696c656420746f206f627461696e20574348492066726f6d2073656e646560448201527f720000000000000000000000000000000000000000000000000000000000000060648201526084016104d5565b600180547fffffffffffffffffffffffffffffffffffffffffffffffffffffffffffffff0016811790556040517f3ffbd47f00000000000000000000000000000000000000000000000000000000815273ffffffffffffffffffffffffffffffffffffffff7f00000000000000000000000000000000000000000000000000000000000000001690633ffbd47f90610d079089908990600401613aa8565b6020604051808303816000875af1158015610d26573d6000803e3d6000fd5b505050506040513d601f19601f82011682018060405250810190610d4a9190613acd565b600180547fffffffffffffffffffffffffffffffffffffffffffffffffffffffffffffff001690556040517f42842e0e00000000000000000000000000000000000000000000000000000000815230600482015273ffffffffffffffffffffffffffffffffffffffff8681166024830152604482018390529193507f0000000000000000000000000000000000000000000000000000000000000000909116906342842e0e90606401600060405180830381600087803b158015610e0d57600080fd5b505af1158015610e21573d6000803e3d6000fd5b50506040517fd3e675510000000000000000000000000000000000000000000000000000000081526000925073ffffffffffffffffffffffffffffffffffffffff7f000000000000000000000000000000000000000000000000000000000000000016915063d3e6755190610e9c9030908890600401613bb8565b6020604051808303816000875af1158015610ebb573d6000803e3d6000fd5b505050506040513d601f19601f82011682018060405250810190610edf9190613a8b565b90508073ffffffffffffffffffffffffffffffffffffffff168573ffffffffffffffffffffffffffffffffffffffff1614610f76576040517f08c379a000000000000000000000000000000000000000000000000000000000815260206004820152601d60248201527f7369676e617475726520646964206e6f74206d61746368206f776e657200000060448201526064016104d5565b5050949350505050565b60008473ffffffffffffffffffffffffffffffffffffffff168373ffffffffffffffffffffffffffffffffffffffff1603610fbd5750600161042f565b60008681526020818152604080832073ffffffffffffffffffffffffffffffffffffffff891684529091529020610ff690858585611ba9565b9695505050505050565b60608060606000611012878787611d04565b6006810180546040805160208084028201810190925282815293945060009084015b828210156110e057838290600052602060002001805461105390613be7565b80601f016020809104026020016040519081016040528092919081815260200182805461107f90613be7565b80156110cc5780601f106110a1576101008083540402835291602001916110cc565b820191906000526020600020905b8154815290600101906020018083116110af57829003601f168201915b505050505081526020019060010190611034565b505050506002820180546040805160208084028201810190925282815293975083018282801561114657602002820191906000526020600020905b815473ffffffffffffffffffffffffffffffffffffffff16815260019091019060200180831161111b575b5050506004840180546040805160208084028201810190925282815295985091935091508301828280156111b057602002820191906000526020600020905b815473ffffffffffffffffffffffffffffffffffffffff168152600190910190602001808311611185575b505050505091505093509350939050565b60008060006111d08888611d3b565b915091506111e18282888888610f80565b98975050505050505050565b6000806111fa8585611d3b565b915091506112098282856115d8565b5050505050565b61122486868661121e611a41565b86610f80565b61128a576040517f08c379a000000000000000000000000000000000000000000000000000000000815260206004820152601860248201527f7468652073656e64657220686173206e6f20616363657373000000000000000060448201526064016104d5565b60008681526020818152604080832073ffffffffffffffffffffffffffffffffffffffff8916845290915290206112c49085858585611e95565b8473ffffffffffffffffffffffffffffffffffffffff16867fda7f58f5c8ac3e2fc1ef06aab508e1cf0bc58681c0beab7980eb7264d1396108868686866040516113119493929190613c3a565b60405180910390a3505050505050565b60008061132e8888611d3b565b91509150611340828288888888611210565b5050505050505050565b6000611357848484611d04565b541515949350505050565b60008061136f8484611d3b565b915091508073ffffffffffffffffffffffffffffffffffffffff16611392611a41565b73ffffffffffffffffffffffffffffffffffffffff1614611435576040517f08c379a000000000000000000000000000000000000000000000000000000000815260206004820152602660248201527f6f6e6c7920746865206f776e65722063616e207265717565737420612074616b60448201527f65206f766572000000000000000000000000000000000000000000000000000060648201526084016104d5565b600180547fffffffffffffffffffffffffffffffffffffffffffffffffffffffffffffff0016811790556040517f42842e0e00000000000000000000000000000000000000000000000000000000815273ffffffffffffffffffffffffffffffffffffffff8281166004830152306024830152604482018490527f000000000000000000000000000000000000000000000000000000000000000016906342842e0e90606401600060405180830381600087803b1580156114f557600080fd5b505af1158015611509573d6000803e3d6000fd5b5050600180547fffffffffffffffffffffffffffffffffffffffffffffffffffffffffffffff0016905550506040517f7ab3f4400000000000000000000000000000000000000000000000000000000081526060903090637ab3f4409061159f9086908490869088907fffffffffffffffffffffffffffffffffffffffffffffffffffffffffffffffff90600090600401613c81565b600060405180830381600087803b1580156115b957600080fd5b505af11580156115cd573d6000803e3d6000fd5b505050505050505050565b60008381526020818152604080832073ffffffffffffffffffffffffffffffffffffffff861684529091529020611610908242611eca565b61161a8383611ef0565b8173ffffffffffffffffffffffffffffffffffffffff16837f3a9bff7576dcebee58c32e0d558b45bda915462c4b3f1a412e9c939409d740b38342604051611663929190613cd6565b60405180910390a3505050565b600061167a611a41565b90506116a9848484847fffffffffffffffffffffffffffffffffffffffffffffffffffffffffffffffff610f80565b61170f576040517f08c379a000000000000000000000000000000000000000000000000000000000815260206004820152601860248201527f7468652073656e64657220686173206e6f20616363657373000000000000000060448201526064016104d5565b60008481526020818152604080832073ffffffffffffffffffffffffffffffffffffffff8716845290915290206117468184611f9f565b8373ffffffffffffffffffffffffffffffffffffffff168273ffffffffffffffffffffffffffffffffffffffff16146117ac576117a78184847fffffffffffffffffffffffffffffffffffffffffffffffffffffffffffffffff6000611e95565b6117b6565b6117b68585611ef0565b8373ffffffffffffffffffffffffffffffffffffffff16857f1302ec2f9c36e3381c09c1aea60984b265fe61fbcda67cc0439578b2dfcd78bc856040516117fd9190613cf8565b60405180910390a35050505050565b6000611816611a41565b90508273ffffffffffffffffffffffffffffffffffffffff168173ffffffffffffffffffffffffffffffffffffffff16148061187a575061187a868686847fffffffffffffffffffffffffffffffffffffffffffffffffffffffffffffffff610f80565b6118e0576040517f08c379a000000000000000000000000000000000000000000000000000000000815260206004820152601860248201527f7468652073656e64657220686173206e6f20616363657373000000000000000060448201526064016104d5565b60008681526020818152604080832073ffffffffffffffffffffffffffffffffffffffff89168452909152902061191990858585611fb9565b6119238686611ef0565b8473ffffffffffffffffffffffffffffffffffffffff16867f9ec8d90497f619bc37843fafe5b5a87482fbc6a5341efe780fbd2de603c1746586868660405161131193929190613d0b565b60008061197b8585611d3b565b91509150611209828285611670565b60008061199a87878787876119cd565b54979650505050505050565b6000806119b38787611d3b565b915091506119c4828287878761180c565b50505050505050565b6000806119db878787611d04565b905082611a0e5773ffffffffffffffffffffffffffffffffffffffff841660009081526001820160205260409020611a36565b73ffffffffffffffffffffffffffffffffffffffff8416600090815260038201602052604090205b979650505050505050565b6000611a4b611ff1565b905090565b6060611a5b82612060565b611ac1576040517f08c379a000000000000000000000000000000000000000000000000000000000815260206004820152601f60248201527f706f737369626c65204a534f4e20696e6a656374696f6e20617474656d70740060448201526064016104d5565b819050600060018451611ad49190613d4b565b90505b60008112611ba2576000848281518110611af357611af3613dbf565b60200260200101519050611b068161238b565b611b6c576040517f08c379a000000000000000000000000000000000000000000000000000000000815260206004820152601060248201527f696e76616c69642070617468206b65790000000000000000000000000000000060448201526064016104d5565b8083604051602001611b7f929190613dee565b60405160208183030381529060405292505080611b9b90613e99565b9050611ad7565b5092915050565b6000808211611c14576040517f08c379a000000000000000000000000000000000000000000000000000000000815260206004820152601760248201527f617454696d65206d757374206e6f74206265207a65726f00000000000000000060448201526064016104d5565b8460005b73ffffffffffffffffffffffffffffffffffffffff851660009081526001830160205260409020548411611c51576001925050506109dc565b8551811115611c6257611c62613ef0565b85518103611c75576000925050506109dc565b600082600501878381518110611c8d57611c8d613dbf565b6020026020010151604051611ca29190613f1f565b908152604051908190036020019020805490915015611ccf57915081611cc782613f3b565b915050611c18565b505073ffffffffffffffffffffffffffffffffffffffff841660009081526003909101602052604090205482111590506109dc565b60008381526020818152604080832073ffffffffffffffffffffffffffffffffffffffff8616845290915281206109dc9083612481565b6000807f000000000000000000000000000000000000000000000000000000000000000073ffffffffffffffffffffffffffffffffffffffff1663d89d75d885856040518363ffffffff1660e01b8152600401611d99929190613aa8565b602060405180830381865afa158015611db6573d6000803e3d6000fd5b505050506040513d601f19601f82011682018060405250810190611dda9190613acd565b6040517f6352211e000000000000000000000000000000000000000000000000000000008152600481018290529092507f000000000000000000000000000000000000000000000000000000000000000073ffffffffffffffffffffffffffffffffffffffff1690636352211e90602401602060405180830381865afa158015611e68573d6000803e3d6000fd5b505050506040513d601f19601f82011682018060405250810190611e8c9190613a8b565b90509250929050565b6000611ea3868660016124da565b9050611ec282611eb65781600101611ebb565b816003015b85856125db565b505050505050565b611edf611ed9848460006124da565b82612790565b611eeb838360006128b9565b505050565b60008281526020818152604080832073ffffffffffffffffffffffffffffffffffffffff851684529091529020805415801590611f315750611f3181612952565b15611eeb5760008381526020818152604080832073ffffffffffffffffffffffffffffffffffffffff861684529091528120818155906001820181611f796002850182612f04565b5050600382016000611f8e6004850182612f04565b506112099050600683016000612f22565b611fb5611fae838360006124da565b600061297d565b5050565b6000611fc7858560006124da565b9050611fe582611fda5781600101611fdf565b816003015b84612a18565b611209858560006128b9565b60007f000000000000000000000000000000000000000000000000000000000000000073ffffffffffffffffffffffffffffffffffffffff16330361205b57507fffffffffffffffffffffffffffffffffffffffffffffffffffffffffffffffec36013560601c90565b503390565b6000808290506001815110806120d057508060008151811061208457612084613dbf565b6020910101517fff00000000000000000000000000000000000000000000000000000000000000167f7b0000000000000000000000000000000000000000000000000000000000000014155b156120de5750600092915050565b6001600080825b845181101561237f57600084136120fe576120fe613ef0565b82156121e4578115612113576000915061236f565b84818151811061212557612125613dbf565b01602001517fff00000000000000000000000000000000000000000000000000000000000000167f22000000000000000000000000000000000000000000000000000000000000000361217b576000925061236f565b84818151811061218d5761218d613dbf565b01602001517fff00000000000000000000000000000000000000000000000000000000000000167f5c00000000000000000000000000000000000000000000000000000000000000036121df57600191505b61236f565b81156121f2576121f2613ef0565b84818151811061220457612204613dbf565b01602001517fff00000000000000000000000000000000000000000000000000000000000000167f22000000000000000000000000000000000000000000000000000000000000000361225a576001925061236f565b84818151811061226c5761226c613dbf565b01602001517fff00000000000000000000000000000000000000000000000000000000000000167f7b00000000000000000000000000000000000000000000000000000000000000036122c9576122c284613f73565b935061236f565b8481815181106122db576122db613dbf565b01602001517fff00000000000000000000000000000000000000000000000000000000000000167f7d000000000000000000000000000000000000000000000000000000000000000361236f5761233184613e99565b9350600084121561234457612344613ef0565b8315801561235d5750845161235a826001613b15565b14155b1561236f575060009695505050505050565b61237881613f3b565b90506120e5565b50509015949350505050565b600081815b8151811015612477578181815181106123ab576123ab613dbf565b6020910101517fff00000000000000000000000000000000000000000000000000000000000000167f22000000000000000000000000000000000000000000000000000000000000001480612458575081818151811061240d5761240d613dbf565b6020910101517fff00000000000000000000000000000000000000000000000000000000000000167f5c00000000000000000000000000000000000000000000000000000000000000145b15612467575060009392505050565b61247081613f3b565b9050612390565b5060019392505050565b8160005b8251811015611ba257816005018382815181106124a4576124a4613dbf565b60200260200101516040516124b99190613f1f565b90815260200160405180910390209150806124d390613f3b565b9050612485565b82546000901580156124e95750815b15612512577fffffffffffffffffffffffffffffffffffffffffffffffffffffffffffffffff84555b8360005b84518110156125d25760008260050186838151811061253757612537613dbf565b602002602001015160405161254c9190613f1f565b908152604051908190036020019020805490915015801561256a5750845b156125c0578260060186838151811061258557612585613dbf565b602090810291909101810151825460018101845560009384529282902081516125b79491909101929190910190612f40565b50600683015481555b91506125cb81613f3b565b9050612516565b50949350505050565b6000811161266b576040517f08c379a000000000000000000000000000000000000000000000000000000000815260206004820152602d60248201527f63616e6e6f74206772616e74207065726d697373696f6e732077697468207a6560448201527f726f2065787069726174696f6e0000000000000000000000000000000000000060648201526084016104d5565b73ffffffffffffffffffffffffffffffffffffffff821660009081526020849052604090208054821015612721576040517f08c379a000000000000000000000000000000000000000000000000000000000815260206004820152603660248201527f6578697374696e67207065726d697373696f6e20686173206c6f6e676572207660448201527f616c6964697479207468616e206e6577206772616e740000000000000000000060648201526084016104d5565b818155600181015460000361278a576001848101805480830182556000828152602090200180547fffffffffffffffffffffffff00000000000000000000000000000000000000001673ffffffffffffffffffffffffffffffffffffffff871617905554908201555b50505050565b61279d8260010182612bd4565b6127aa8260030182612bd4565b60068201546000906127be90600190613d4b565b90505b60008112611eeb5760008360060182815481106127e0576127e0613dbf565b9060005260206000200180546127f590613be7565b80601f016020809104026020016040519081016040528092919081815260200182805461282190613be7565b801561286e5780601f106128435761010080835404028352916020019161286e565b820191906000526020600020905b81548152906001019060200180831161285157829003601f168201915b5050505050905061289e846005018260405161288a9190613f1f565b908152602001604051809103902084612790565b6128a88482612c5e565b506128b281613e99565b90506127c1565b825415806128c75750815181145b156128d157505050565b815181106128e1576128e1613ef0565b61292f836005018383815181106128fa576128fa613dbf565b602002602001015160405161290f9190613f1f565b9081526040519081900360200190208361292a846001613b15565b6128b9565b611eeb8383838151811061294557612945613dbf565b6020026020010151612c5e565b600681015460009015801561296957506002820154155b801561297757506004820154155b92915050565b61298982600101612e80565b61299582600301612e80565b60005b60068301548110156129fc576129ec836005018460060183815481106129c0576129c0613dbf565b906000526020600020016040516129d79190613fa4565b9081526020016040518091039020600161297d565b6129f581613f3b565b9050612998565b50612a0b600683016000612f22565b8015611fb5575060009055565b73ffffffffffffffffffffffffffffffffffffffff811660009081526020839052604081206001015490819003612a4e57505050565b73ffffffffffffffffffffffffffffffffffffffff82166000908152602084905260408120818155600190810191909155830154811015612b645760018084018054600092612a9c91614076565b81548110612aac57612aac613dbf565b60009182526020909120015473ffffffffffffffffffffffffffffffffffffffff16905080600185810190612ae19085614076565b81548110612af157612af1613dbf565b600091825260208083209190910180547fffffffffffffffffffffffff00000000000000000000000000000000000000001673ffffffffffffffffffffffffffffffffffffffff948516179055918316815290859052604090206001810154612b5c57612b5c613ef0565b600101829055505b82600101805480612b7757612b7761408d565b60008281526020902081017fffffffffffffffffffffffffffffffffffffffffffffffffffffffffffffffff90810180547fffffffffffffffffffffffff0000000000000000000000000000000000000000169055019055505050565b600182810154600091612be691613d4b565b90505b60008112611eeb576000836001018281548110612c0857612c08613dbf565b600091825260208083209091015473ffffffffffffffffffffffffffffffffffffffff1680835290869052604090912054909150831115612c4d57612c4d8482612a18565b50612c5781613e99565b9050612be9565b60008260050182604051612c729190613f1f565b90815260200160405180910390209050612c8b81612952565b612c9457505050565b80546040516005850190612ca9908590613f1f565b90815260405190819003602001902060008082556001820181612ccf6002850182612f04565b5050600382016000612ce46004850182612f04565b50612cf59050600683016000612f22565b505080600003612d055750505050565b6006840154811015612e495760068401805460009190612d2790600190614076565b81548110612d3757612d37613dbf565b906000526020600020018054612d4c90613be7565b80601f0160208091040260200160405190810160405280929190818152602001828054612d7890613be7565b8015612dc55780601f10612d9a57610100808354040283529160200191612dc5565b820191906000526020600020905b815481529060010190602001808311612da857829003601f168201915b505050505090508085600601600184612dde9190614076565b81548110612dee57612dee613dbf565b906000526020600020019080519060200190612e0b929190612f40565b5060008560050182604051612e209190613f1f565b908152602001604051809103902090506000816000015411612e4457612e44613ef0565b829055505b83600601805480612e5c57612e5c61408d565b600190038181906000526020600020016000612e789190612fc4565b905550505050565b60005b6001820154811015612ef257816000016000836001018381548110612eaa57612eaa613dbf565b600091825260208083209091015473ffffffffffffffffffffffffffffffffffffffff168352820192909252604001812081815560010155612eeb81613f3b565b9050612e83565b50612f01600182016000612f04565b50565b5080546000825590600052602060002090810190612f019190612ffa565b5080546000825590600052602060002090810190612f01919061300f565b828054612f4c90613be7565b90600052602060002090601f016020900481019282612f6e5760008555612fb4565b82601f10612f8757805160ff1916838001178555612fb4565b82800160010185558215612fb4579182015b82811115612fb4578251825591602001919060010190612f99565b50612fc0929150612ffa565b5090565b508054612fd090613be7565b6000825580601f10612fe0575050565b601f016020900490600052602060002090810190612f0191905b5b80821115612fc05760008155600101612ffb565b80821115612fc05760006130238282612fc4565b5060010161300f565b73ffffffffffffffffffffffffffffffffffffffff81168114612f0157600080fd5b80356130598161302c565b919050565b7f4e487b7100000000000000000000000000000000000000000000000000000000600052604160045260246000fd5b604051601f82017fffffffffffffffffffffffffffffffffffffffffffffffffffffffffffffffe016810167ffffffffffffffff811182821017156130d4576130d461305e565b604052919050565b600067ffffffffffffffff8311156130f6576130f661305e565b61312760207fffffffffffffffffffffffffffffffffffffffffffffffffffffffffffffffe0601f8601160161308d565b905082815283838301111561313b57600080fd5b828260208301376000602084830101529392505050565b600082601f83011261316357600080fd5b613172838335602085016130dc565b9392505050565b600082601f83011261318a57600080fd5b8135602067ffffffffffffffff808311156131a7576131a761305e565b8260051b6131b683820161308d565b93845285810183019383810190888611156131d057600080fd5b84880192505b858310156111e1578235848111156131ee5760008081fd5b6131fc8a87838c0101613152565b83525091840191908401906131d6565b8015158114612f0157600080fd5b600080600080600060a0868803121561323257600080fd5b8535945060208601356132448161302c565b9350604086013567ffffffffffffffff81111561326057600080fd5b61326c88828901613179565b935050606086013561327d8161302c565b9150608086013561328d8161320c565b809150509295509295909350565b6000806000806000608086880312156132b357600080fd5b85356132be8161302c565b945060208601356132ce8161302c565b935060408601359250606086013567ffffffffffffffff808211156132f257600080fd5b818801915088601f83011261330657600080fd5b81358181111561331557600080fd5b89602082850101111561332757600080fd5b9699959850939650602001949392505050565b600080600080600080600060e0888a03121561335557600080fd5b873567ffffffffffffffff8082111561336d57600080fd5b6133798b838c01613152565b985060208a013591508082111561338f57600080fd5b61339b8b838c01613152565b975060408a01359150808211156133b157600080fd5b6133bd8b838c01613179565b965060608a01359150808211156133d357600080fd5b506133e08a828b01613152565b9450506080880135925060a088013591506133fd60c0890161304e565b905092959891949750929550565b6000806000806080858703121561342157600080fd5b843567ffffffffffffffff8082111561343957600080fd5b61344588838901613152565b9550602087013591508082111561345b57600080fd5b61346788838901613152565b9450604087013591508082111561347d57600080fd5b61348988838901613179565b9350606087013591508082111561349f57600080fd5b506134ac87828801613152565b91505092959194509250565b600080600080608085870312156134ce57600080fd5b843567ffffffffffffffff808211156134e657600080fd5b6134f288838901613152565b9550602087013591508082111561350857600080fd5b61351488838901613152565b9450604087013591506135268261302c565b9092506060860135908082111561353c57600080fd5b508501601f8101871361354e57600080fd5b6134ac878235602084016130dc565b600080600080600060a0868803121561357557600080fd5b8535945060208601356135878161302c565b9350604086013567ffffffffffffffff8111156135a357600080fd5b6135af88828901613179565b93505060608601356135c08161302c565b949793965091946080013592915050565b6000806000606084860312156135e657600080fd5b8335925060208401356135f88161302c565b9150604084013567ffffffffffffffff81111561361457600080fd5b61362086828701613179565b9150509250925092565b60005b8381101561364557818101518382015260200161362d565b8381111561278a5750506000910152565b6000815180845261366e81602086016020860161362a565b601f017fffffffffffffffffffffffffffffffffffffffffffffffffffffffffffffffe0169290920160200192915050565b600081518084526020808501808196508360051b8101915082860160005b858110156136e85782840389526136d6848351613656565b988501989350908401906001016136be565b5091979650505050505050565b600081518084526020808501945080840160005b8381101561373b57815173ffffffffffffffffffffffffffffffffffffffff1687529582019590820190600101613709565b509495945050505050565b60608152600061375960608301866136a0565b828103602084015261376b81866136f5565b90508281036040840152610ff681856136f5565b600080600080600060a0868803121561379757600080fd5b853567ffffffffffffffff808211156137af57600080fd5b6137bb89838a01613152565b965060208801359150808211156137d157600080fd5b6137dd89838a01613152565b955060408801359150808211156137f357600080fd5b506135af88828901613179565b60006020828403121561381257600080fd5b81356131728161302c565b60008060006060848603121561383257600080fd5b833567ffffffffffffffff8082111561384a57600080fd5b61385687838801613152565b9450602086013591508082111561386c57600080fd5b61387887838801613152565b9350604086013591508082111561388e57600080fd5b5061362086828701613179565b60008060008060008060c087890312156138b457600080fd5b8635955060208701356138c68161302c565b9450604087013567ffffffffffffffff8111156138e257600080fd5b6138ee89828a01613179565b94505060608701356138ff8161302c565b92506080870135915060a08701356139168161320c565b809150509295509295509295565b60008060008060008060c0878903121561393d57600080fd5b863567ffffffffffffffff8082111561395557600080fd5b6139618a838b01613152565b9750602089013591508082111561397757600080fd5b6139838a838b01613152565b9650604089013591508082111561399957600080fd5b506138ee89828a01613179565b600080604083850312156139b957600080fd5b823567ffffffffffffffff808211156139d157600080fd5b6139dd86838701613152565b935060208501359150808211156139f357600080fd5b50613a0085828601613152565b9150509250929050565b600080600080600060a08688031215613a2257600080fd5b853567ffffffffffffffff80821115613a3a57600080fd5b613a4689838a01613152565b96506020880135915080821115613a5c57600080fd5b613a6889838a01613152565b95506040880135915080821115613a7e57600080fd5b5061326c88828901613179565b600060208284031215613a9d57600080fd5b81516131728161302c565b604081526000613abb6040830185613656565b828103602084015261042f8185613656565b600060208284031215613adf57600080fd5b5051919050565b7f4e487b7100000000000000000000000000000000000000000000000000000000600052601160045260246000fd5b60008219821115613b2857613b28613ae6565b500190565b600060208284031215613b3f57600080fd5b81516131728161320c565b60c081526000613b5d60c0830189613656565b8281036020840152613b6f8189613656565b90508281036040840152613b838188613656565b60608401969096525050608081019290925273ffffffffffffffffffffffffffffffffffffffff1660a0909101529392505050565b73ffffffffffffffffffffffffffffffffffffffff831681526040602082015260006109dc6040830184613656565b600181811c90821680613bfb57607f821691505b602082108103613c34577f4e487b7100000000000000000000000000000000000000000000000000000000600052602260045260246000fd5b50919050565b608081526000613c4d60808301876136a0565b73ffffffffffffffffffffffffffffffffffffffff9590951660208301525060408101929092521515606090910152919050565b868152600073ffffffffffffffffffffffffffffffffffffffff808816602084015260c06040840152613cb760c08401886136a0565b95166060830152506080810192909252151560a0909101529392505050565b604081526000613ce960408301856136a0565b90508260208301529392505050565b60208152600061317260208301846136a0565b606081526000613d1e60608301866136a0565b73ffffffffffffffffffffffffffffffffffffffff94909416602083015250901515604090910152919050565b6000808312837f800000000000000000000000000000000000000000000000000000000000000001831281151615613d8557613d85613ae6565b837f7fffffffffffffffffffffffffffffffffffffffffffffffffffffffffffffff018313811615613db957613db9613ae6565b50500390565b7f4e487b7100000000000000000000000000000000000000000000000000000000600052603260045260246000fd5b7f7b22000000000000000000000000000000000000000000000000000000000000815260008351613e2681600285016020880161362a565b7f223a0000000000000000000000000000000000000000000000000000000000006002918401918201528351613e6381600484016020880161362a565b7f7d0000000000000000000000000000000000000000000000000000000000000060049290910191820152600501949350505050565b60007f80000000000000000000000000000000000000000000000000000000000000008203613eca57613eca613ae6565b507fffffffffffffffffffffffffffffffffffffffffffffffffffffffffffffffff0190565b7f4e487b7100000000000000000000000000000000000000000000000000000000600052600160045260246000fd5b60008251613f3181846020870161362a565b9190910192915050565b60007fffffffffffffffffffffffffffffffffffffffffffffffffffffffffffffffff8203613f6c57613f6c613ae6565b5060010190565b60007f7fffffffffffffffffffffffffffffffffffffffffffffffffffffffffffffff8203613f6c57613f6c613ae6565b600080835481600182811c915080831680613fc057607f831692505b60208084108203613ff8577f4e487b710000000000000000000000000000000000000000000000000000000086526022600452602486fd5b81801561400c576001811461403b57614068565b7fffffffffffffffffffffffffffffffffffffffffffffffffffffffffffffff00861689528489019650614068565b60008a81526020902060005b868110156140605781548b820152908501908301614047565b505084890196505b509498975050505050505050565b60008282101561408857614088613ae6565b500390565b7f4e487b7100000000000000000000000000000000000000000000000000000000600052603160045260246000fdfea264697066735822122064eb59069da2a8b2ffba2b16b759509aab6795d233ba57168ace31ccf0dfe6c964736f6c634300080d0033",
  "immutableReferences": {
    "8": [
      {
        "length": 32,
        "start": 734
      },
      {
        "length": 32,
        "start": 8181
      }
    ],
    "2587": [
      {
        "length": 32,
        "start": 821
      },
      {
        "length": 32,
        "start": 1106
      },
      {
        "length": 32,
        "start": 1616
      },
      {
        "length": 32,
        "start": 2327
      },
      {
        "length": 32,
        "start": 2537
      },
      {
        "length": 32,
        "start": 3280
      },
      {
        "length": 32,
        "start": 3527
      },
      {
        "length": 32,
        "start": 3684
      },
      {
        "length": 32,
        "start": 5297
      },
      {
        "length": 32,
        "start": 7488
      },
      {
        "length": 32,
        "start": 7692
      }
    ],
    "2591": [
      {
        "length": 32,
        "start": 594
      },
      {
        "length": 32,
        "start": 1904
      },
      {
        "length": 32,
        "start": 2815
      }
    ]
  },
  "source": "// SPDX-License-Identifier: MIT\n// Copyright (C) 2022 Autonomous Worlds Ltd\n\npragma solidity ^0.8.13;\n\nimport \"./JsonSubObject.sol\";\nimport \"./NamePermissions.sol\";\n\nimport \"@openzeppelin/contracts/metatx/ERC2771Context.sol\";\nimport \"@openzeppelin/contracts/token/ERC20/IERC20.sol\";\nimport \"@openzeppelin/contracts/token/ERC721/IERC721Receiver.sol\";\nimport \"@xaya/eth-account-registry/contracts/IXayaAccounts.sol\";\n\n/**\n * @dev The main delegation contract.  It uses the permissions tree system\n * implemented in the super contracts, and links it to the actual XayaAccounts\n * contract for sending moves.  It also enables ERC2771 meta transactions.\n */\ncontract XayaDelegation is NamePermissions, ERC2771Context, IERC721Receiver\n{\n\n  /* ************************************************************************ */\n\n  /** @dev The XayaAccounts contract used.  */\n  IXayaAccounts public immutable accounts;\n\n  /** @dev The WCHI token used.  */\n  IERC20 public immutable wchi;\n\n  /**\n   * @dev Temporarily set to true while we expect to receive name NFTs\n   * (e.g. while registering for a user).\n   *\n   * It allows to receive name ERC721 tokens when set.\n   */\n  bool private allowNameReceive;\n\n  /**\n   * @dev Constructs the contract, fixing the XayaAccounts as well as forwarder\n   * contracts.\n   */\n  constructor (IXayaAccounts acc, address fwd)\n    ERC2771Context(fwd)\n  {\n    accounts = acc;\n    wchi = accounts.wchiToken ();\n    wchi.approve (address (accounts), type (uint256).max);\n  }\n\n  /**\n   * @dev We accept ERC-721 token transfers only when explicitly specified\n   * that we expect one, and we only accept Xaya names at all.\n   */\n  function onERC721Received (address, address, uint256, bytes calldata)\n      public view override returns (bytes4)\n  {\n    require (msg.sender == address (accounts),\n             \"only Xaya names can be received\");\n    require (allowNameReceive, \"tokens cannot be received at the moment\");\n    return IERC721Receiver.onERC721Received.selector;\n  }\n\n  /* ************************************************************************ */\n\n  /**\n   * @dev Registers a name for a given owner.  This registers the name,\n   * transfers it, and then sets operator permissions for the delegation\n   * contract with the owner's prepared signature.  With this method, we\n   * can enable gas-free name registration with this contract's support\n   * for meta transactions.  Returns the new token's ID.\n   *\n   * The WCHI for the name registration is paid for by _msgSender.\n   */\n  function registerFor (string memory ns, string memory name,\n                        address owner, bytes memory signature)\n      public returns (uint256 tokenId)\n  {\n    uint256 fee = accounts.policy ().checkRegistration (ns, name);\n    if (fee > 0)\n      require (wchi.transferFrom (_msgSender (), address (this), fee),\n               \"failed to obtain WCHI from sender\");\n\n    allowNameReceive = true;\n    tokenId = accounts.register (ns, name);\n    allowNameReceive = false;\n    accounts.safeTransferFrom (address (this), owner, tokenId);\n\n    /* In theory, we could eliminate the \"owner\" argument and just recover\n       it from the signature always.  But that runs the risk of sending names\n       to an unspendable address if the user messes up the signature, so we\n       are explicit here to ensure this can't happen as easily.  */\n    address fromSig = accounts.permitOperator (address (this), signature);\n    require (owner == fromSig, \"signature did not match owner\");\n  }\n\n  /**\n   * @dev Takes over a name:  This transfers the name to be owned by\n   * the delegation contract (which is irreversible and corresponds to\n   * a provable \"lock\" of the name).  This can only be done by the owner\n   * of the name.  The previous owner will be granted top-level permissions,\n   * based on which they can then selectively restrict their access if desired.\n   */\n  function takeOverName (string memory ns, string memory name)\n      public\n  {\n    (uint256 tokenId, address owner) = idAndOwner (ns, name);\n    require (_msgSender () == owner, \"only the owner can request a take over\");\n\n    allowNameReceive = true;\n    accounts.safeTransferFrom (owner, address (this), tokenId);\n    allowNameReceive = false;\n\n    string[] memory emptyPath;\n    /* We need to do a real, external transaction here (rather than an\n       internal call), so that the sender is actually the contract now,\n       which is the owner and allowed to grant permissions.  */\n    this.grant (tokenId, address (this), emptyPath,\n                owner, type (uint256).max, false);\n  }\n\n  /**\n   * @dev Sends a move for the given name that contains some JSON data at\n   * the given path.  Verifies that the _msgSender is allowed to send\n   * a move for that name and path at the current time.  The nonce used is\n   * returned (as from XayaAccounts.move).\n   *\n   * Any WCHI required for the move will be paid for by _msgSender.\n   */\n  function sendHierarchicalMove (string memory ns, string memory name,\n                                 string[] memory path, string memory mv)\n      public returns (uint256)\n  {\n    return sendHierarchicalMove (ns, name, path, mv, type (uint256).max,\n                                 0, address (0));\n  }\n\n  /**\n   * @dev Sends a move for the given name as the other sendHierarchicalMove\n   * method, but allows control over nonce and WCHI payments.\n   */\n  function sendHierarchicalMove (string memory ns, string memory name,\n                                 string[] memory path, string memory mv,\n                                 uint256 nonce,\n                                 uint256 amount, address receiver)\n      public returns (uint256)\n  {\n    require (hasAccess (ns, name, path, _msgSender (), block.timestamp),\n             \"the message sender has no permission to send moves\");\n\n    string memory fullMove = JsonSubObject.atPath (path, mv);\n    uint256 cost = accounts.policy ().checkMove (ns, fullMove) + amount;\n    if (cost > 0)\n      require (wchi.transferFrom (_msgSender (), address (this), cost),\n               \"failed to obtain WCHI from sender\");\n\n    return accounts.move (ns, name, fullMove, nonce, amount, receiver);\n  }\n\n  /* ************************************************************************ */\n\n  /**\n   * @dev Computes the tokenId and looks up the current owner for a given name.\n   */\n  function idAndOwner (string memory ns, string memory name)\n      private view returns (uint256 tokenId, address owner)\n  {\n    tokenId = accounts.tokenIdForName (ns, name);\n    owner = accounts.ownerOf (tokenId);\n  }\n\n  /* Expose the methods for managing permissions from NamePermissions on a\n     per-name basis, with automatic lookup of the tokenId and current owner.\n\n     This is just for convenience.  All logic (and checks!) are done in the\n     according methods in NamePermissions, and those could be called directly\n     as well by anyone if needed.  */\n\n  function hasAccess (string memory ns, string memory name,\n                      string[] memory path,\n                      address operator, uint256 atTime)\n      public view returns (bool)\n  {\n    (uint256 tokenId, address owner) = idAndOwner (ns, name);\n    return hasAccess (tokenId, owner, path, operator, atTime);\n  }\n\n  function grant (string memory ns, string memory name, string[] memory path,\n                  address operator, uint256 expiration, bool fallbackOnly)\n      public\n  {\n    (uint256 tokenId, address owner) = idAndOwner (ns, name);\n    grant (tokenId, owner, path, operator, expiration, fallbackOnly);\n  }\n\n  function revoke (string memory ns, string memory name, string[] memory path,\n                   address operator, bool fallbackOnly)\n      public\n  {\n    (uint256 tokenId, address owner) = idAndOwner (ns, name);\n    revoke (tokenId, owner, path, operator, fallbackOnly);\n  }\n\n  function resetTree (string memory ns, string memory name,\n                      string[] memory path)\n      public\n  {\n    (uint256 tokenId, address owner) = idAndOwner (ns, name);\n    resetTree (tokenId, owner, path);\n  }\n\n  function expireTree (string memory ns, string memory name,\n                       string[] memory path)\n      public\n  {\n    (uint256 tokenId, address owner) = idAndOwner (ns, name);\n    expireTree (tokenId, owner, path);\n  }\n\n  /* ************************************************************************ */\n\n  /* Explicitly specify that we want to use the ERC2771 variants for\n     _msgSender and _msgData.  */\n\n  function _msgSender ()\n      internal view override(Context, ERC2771Context) returns (address)\n  {\n    return ERC2771Context._msgSender ();\n  }\n\n  function _msgData ()\n      internal view override(Context, ERC2771Context) returns (bytes calldata)\n  {\n    return ERC2771Context._msgData ();\n  }\n\n  /* ************************************************************************ */\n\n}\n",
  "sourcePath": "/home/daniel/Projekte/delegation-contract/contracts/XayaDelegation.sol",
  "compiler": {
    "name": "solc",
    "version": "0.8.13+commit.abaa5c0e.Emscripten.clang"
  },
  "schemaVersion": "3.4.4",
  "updatedAt": "2022-11-05T13:05:28.254Z",
  "networkType": "ethereum",
  "devdoc": {
    "details": "The main delegation contract.  It uses the permissions tree system implemented in the super contracts, and links it to the actual XayaAccounts contract for sending moves.  It also enables ERC2771 meta transactions.",
    "kind": "dev",
    "methods": {
      "constructor": {
        "details": "Constructs the contract, fixing the XayaAccounts as well as forwarder contracts."
      },
      "expireTree(uint256,address,string[])": {
        "details": "Removes all expired permissions in the given subtree.  This may have an indirect effect on fallback permissions, but otherwise does not alter permissions (since it only removes ones that are expired anyway at the current time).  Everyone is allowed to call this if they are willing to pay for the gas."
      },
      "getDefinedKeys(uint256,address,string[])": {
        "details": "Returns all defined keys (addresses with full access, addresses with fallback access, and child paths) for the node at the given position in the permissions."
      },
      "getExpiration(uint256,address,string[],address,bool)": {
        "details": "Returns the expiration timestamp for a given operator permission inside the storage."
      },
      "grant(uint256,address,string[],address,uint256,bool)": {
        "details": "Tries to grant a particular permission, checking that the sender of the message is actually allowed to do so."
      },
      "hasAccess(uint256,address,string[],address,uint256)": {
        "details": "Checks if the given address has access permissions to the given token and hierarchy level.  In addition to the actual rules specified in the permissions themselves, the owner address always has access."
      },
      "onERC721Received(address,address,uint256,bytes)": {
        "details": "We accept ERC-721 token transfers only when explicitly specified that we expect one, and we only accept Xaya names at all."
      },
      "permissionExists(uint256,address,string[])": {
        "details": "Returns true if there is a node with specific permissions at the given hierarchy level (i.e. it exists)."
      },
      "permissionExists(uint256,address,string[],address,bool)": {
        "details": "Returns true if a specific permission exists at the given node and for the given operator and fallback type."
      },
      "registerFor(string,string,address,bytes)": {
        "details": "Registers a name for a given owner.  This registers the name, transfers it, and then sets operator permissions for the delegation contract with the owner's prepared signature.  With this method, we can enable gas-free name registration with this contract's support for meta transactions.  Returns the new token's ID. The WCHI for the name registration is paid for by _msgSender."
      },
      "resetTree(uint256,address,string[])": {
        "details": "Revokes all permissions in a given subtree, and replaces them with just a single permission for the message sender.  This can be used to reset an entire tree of permissions if desired, while making sure the message sender retains permission (but they can explicitly revoke their own as well afterwards).  Reverts if the message sender has no access to the requested level."
      },
      "revoke(uint256,address,string[],address,bool)": {
        "details": "Revokes a particular approval, checking that the message sender is actually allowed to do so."
      },
      "sendHierarchicalMove(string,string,string[],string)": {
        "details": "Sends a move for the given name that contains some JSON data at the given path.  Verifies that the _msgSender is allowed to send a move for that name and path at the current time.  The nonce used is returned (as from XayaAccounts.move). Any WCHI required for the move will be paid for by _msgSender."
      },
      "sendHierarchicalMove(string,string,string[],string,uint256,uint256,address)": {
        "details": "Sends a move for the given name as the other sendHierarchicalMove method, but allows control over nonce and WCHI payments."
      },
      "takeOverName(string,string)": {
        "details": "Takes over a name:  This transfers the name to be owned by the delegation contract (which is irreversible and corresponds to a provable \"lock\" of the name).  This can only be done by the owner of the name.  The previous owner will be granted top-level permissions, based on which they can then selectively restrict their access if desired."
      }
    },
    "stateVariables": {
      "accounts": {
        "details": "The XayaAccounts contract used.  "
      },
      "allowNameReceive": {
        "details": "Temporarily set to true while we expect to receive name NFTs (e.g. while registering for a user). It allows to receive name ERC721 tokens when set."
      },
      "wchi": {
        "details": "The WCHI token used.  "
      }
    },
    "version": 1
  },
  "userdoc": {
    "kind": "user",
    "methods": {},
    "version": 1
  }
}